:020000040800F2
:10000000382C0020C1740008D9060008BB3D000848
:10001000DB060008DF060008E30600080000000019
:10002000000000000000000000000000E7060008DB
:10003000E906000800000000433D00086F050008C5
:10004000DB740008DB740008DB740008DB74000854
:10005000DB740008DB740008DB740008DB74000844
:10006000DB740008DB740008DB740008DB74000834
:10007000DB740008DB740008DB740008DB74000824
:10008000DB740008DB740008DB740008DB74000814
:10009000DB740008DB740008DB740008EB06000862
:1000A000DB740008DB740008DB740008DB740008F4
:1000B000DB740008DB740008DB740008DB740008E4
:1000C000DB740008DB740008DB740008DB740008D4
:1000D000DB740008DF0800083309000887090008FE
:1000E000DB740008DB740008DB740008DB740008B4
:1000F000DB740008DB740008DB740008DB740008A4
:10010000DB740008DB740008DB740008DB74000893
:10011000DB740008DB740008DB740008DB74000883
:10012000DB740008DB740008DB740008DB74000873
:1001300000F002F800F065F80AA090E8000C824494
:100140008344AAF10107DA4501D100F05AF8AFF271
:10015000090EBAE80F0013F0010F18BFFB1A43F0A5
:10016000010318471C2102003C2102000A444FF001
:10017000000C10F8013B13F0070408BF10F8014B06
:100180001D1108BF10F8015B641E05D010F8016B4B
:10019000641E01F8016BF9D113F0080F1EBF10F8AF
:1001A000014BAD1C0C1B09D16D1E58BF01F801CBD2
:1001B000FAD505E014F8016B01F8016B6D1EF9D555
:1001C0009142D6D37047000000230024002500266A
:1001D000103A28BF78C1FBD8520728BF30C148BFAA
:1001E0000B6070471FB520F03AFA20F0E7FC0400DE
:1001F0000020002120F002FD401C60601FBD10B5F2
:1002000010BD20F0B6FC1146FFF7ECFF00F0C5F87A
:1002100020F0E6FC03B4FFF7F2FF03BC20F0E8FC9B
:100220000B49D1F800C04A685CF8043B10681844D8
:1002300042F8040B8C4528BFA1F1DC0C8A4228BF90
:10024000A1F1DC02C1F800C04A6020F00040704714
:10025000CC250020002400F0CFF90CE0641C012024
:1002600000F0E4F932200BF09EF9012000F0F1F9E2
:1002700032200BF098F9F1E710B5044610F0D3FBEB
:1002800024A00FF03DFF10BD10B504461FF029FE5D
:1002900022A003F051FA15F00EFA07F0B8F910BDDC
:1002A0007FB5052014214FF400721E4BCDE90032BA
:1002B000CDE9021000231C4A1CA11D480AF051FF81
:1002C000064616B91A480AF0B6FF142008210B0298
:1002D0000022CDE90010AFF25F0116A00BF012F87A
:1002E000044614B120460AF0A6FF142009214FF459
:1002F00000630022CDE90010AFF273010FA00BF0F4
:1003000001F8054615B128460AF095FF002004B013
:1003100070BD000075617274320000007370693244
:100320003000000098020020550200086C6564004F
:1003300098040020696E6974000000004E657449DD
:100340006E69740004460D4617A009F005FD2146AC
:100350001FA009F001FD294622A009F0FDFC00BF05
:10036000FEE710B500F00BF909F026FD07F0C8F81C
:100370000AF011FB2049214809F087FE0AF0D1FC60
:100380000BF0FDFB0BF007FC02F086FAFFF788FF8D
:1003900007F043FB0AF0E1FC10BD10B503F0BAFC16
:1003A000FFF7DFFF002010BD0A0D2057726F6E6748
:1003B00020706172616D657465722076616C75651F
:1003C000206465746563746564206F6E0D0A0000B7
:1003D0002020202020202066696C65202025730DB8
:1003E0000A000000202020202020206C696E65205B
:1003F0002025640D0A00000000000120382C002098
:100400002DE9F0438BB081464FF4806009F0ACFEDB
:1004100004462CB934A009F09FFC0BB0BDE8F08372
:1004200000220221084613F005FF0646401C06D1B3
:1004300030A009F091FC20460AF06AF8EDE70220AE
:100440008DF8190041F2883015F0D0FCADF81A0093
:10045000002007900822002108A809F0FEF81022C9
:1004600006A9304613F019FB401C06D125A009F05F
:1004700073FC20460AF04CF8CFE710200A9024A025
:1004800009F06AFC2BE00AA802A9002340F2FF321F
:10049000CDE900102146304613F041FC054600200E
:1004A0006055BDF80A0015F0A7FC074603A81EF02A
:1004B00047FC80463A46414621A009F04DFC2146C2
:1004C00024A009F049FC24A1204620F077FA30B995
:1004D000304613F040FB20460AF01AF800E0D2E75D
:1004E00000BF00BF99E700004E6F206D656D6F7211
:1004F000790A0000536F636B6574206572726F72C6
:100500000A00000042696E64206572726F720A0010
:100510005544505365727665722057616974696EEF
:100520006720666F7220636C69656E74206F6E2041
:10053000706F727420353030302E2E2E0A0000007D
:100540000A282573202C20256429207361696420E2
:100550003A200000257300006578697400000000EF
:1005600010B500214FF0006003F0B7FF10BD10B5CB
:1005700009F01EF806F0D3FF09F029F810BD70B598
:10058000FFF7EEFF174800686422B0FBF2F1B1F10B
:10059000807F00D31DE021F07F40401E4FF0E0221D
:1005A000506150170F22002807DA13071D0E0E4B5B
:1005B00000F00F04241F1D5503E013071C0E0B4B06
:1005C0001C5400BF00204FF0E02290610720106112
:1005D00000BF00F06FFA06A009F033FC10F090FAAB
:1005E00070BD00005C00002018ED00E000E400E0B9
:1005F000756172743200000008B50121202005F0F9
:10060000A4F910208DF8030003208DF802000420C7
:10061000ADF8000069462E4804F0D8F91020ADF876
:10062000000069462A4804F0D1F908BD10B5044617
:1006300014B1012C0AD104E00421254804F0A5FBE3
:1006400005E01021224804F0A0FB00E000BF00BF3D
:1006500010BD10B5044614B1012C0AD104E00421E8
:100660001B4804F0BDFB05E01021194804F0B8FB5D
:1006700000E000BF00BF10BD70B505460C46154830
:10068000007820B9FFF7B8FF0120124908706DB952
:1006900014B1012C08D103E00020FFF7DAFF04E0D9
:1006A0000020FFF7C3FF00E000BF00BF012D0DD108
:1006B00014B1012C08D103E00120FFF7CAFF04E0C8
:1006C0000120FFF7B3FF00E000BF00BF70BD0000D6
:1006D0000014014000000020704700BFFEE700BF8B
:1006E000FEE700BFFEE77047704710B508F060FFF7
:1006F000802004F0BDF802F039FB08F068FF10BD5F
:1007000070B586B005460C466DB9002001903223C5
:10071000F84AF9A1FDA009F01FFB00BF9DF80400F5
:100720000028FBD000BF6CB9002001903323F14AB0
:10073000FEA1F6A009F010FB00BF9DF80400002800
:10074000FBD000BFEE6B20680290207900F00F0014
:10075000082803D10020ADF80C0008E0207900F053
:100760000F00092803D14FF48050ADF80C00207918
:10077000C0F3011018B90020ADF80E0007E0207991
:10078000C0F30110012802D14003ADF80E0020791A
:10079000C0F3811018B90020ADF8100011E02079E5
:1007A000C0F38110012804D14FF4C060ADF81000EF
:1007B00007E02079C0F38110022802D14002ADF891
:1007C00010000020ADF814000C20ADF8120002A9B2
:1007D000306805F0FEFE0121306806F03EF800208A
:1007E00006B070BDF8B505460E4617466DB9002037
:1007F00000905B23D14AC0A1C4A009F0ADFA00BFAC
:100800009DF800000028FBD000BFEC6B102E13D029
:10081000112E26D194F9040000F01F02012191400D
:10082000C74A430942F8231000BF002240F2255175
:10083000206806F03FF814E094F9040000F01F026D
:100840000121914042094FF0E02303EB8202C2F8FC
:10085000001100BF012240F22551206806F02AF85D
:1008600000BF00BF0020F8BDF8B504460E466CB9C5
:10087000002000907723B34A9FA1A4A009F06CFA4E
:1008800000BF9DF800000028FBD000BFE56B286882
:10089000868000BF2868008810F0400FFAD0012041
:1008A000F8BDF8B504466CB9002000908523A64A2F
:1008B00091A196A009F050FA00BF9DF80000002811
:1008C000FBD000BFE56B4FF0FF362868008810F0C2
:1008D000200F02D028688088C6B23046F8BD10B517
:1008E0009A4C08F065FE40F22551206806F017FC8E
:1008F00040B10121964800F053FD40F22551206897
:1009000006F097FC40F22661206806F008FC20B152
:1009100040F22661206806F08CFC0821206806F071
:100920006FFB012802D18A48FFF7BBFF08F04FFE9A
:1009300010BD10B5874C08F03BFE40F225512068F1
:1009400006F0EDFB40B10121834800F029FD40F2A3
:100950002551206806F06DFC40F22661206806F003
:10096000DEFB20B140F22661206806F062FC08211F
:10097000206806F045FB012802D17748FFF791FF78
:1009800008F025FE10BD10B5744C08F011FE40F2C1
:100990002551206806F0C3FB40B10121704800F0EA
:1009A000FFFC40F22551206806F043FC40F226612E
:1009B000206806F0B4FB20B140F22661206806F002
:1009C00038FC0821206806F01BFB012802D164488E
:1009D000FFF767FF08F0FBFD10BD10B501210420F3
:1009E00004F0B3FF0121880304F0AFFF01210420CC
:1009F00004F0ABFF0121480404F0D0FF01210820DE
:100A000004F0A3FF0121880404F0C8FF10BD08B55D
:100A100002208DF8020004208DF803008020ADF83C
:100A2000000069464F4803F0D1FF18208DF80300FD
:100A30004020ADF8000069464A4803F0C7FF042093
:100A40008DF803000820ADF800006946464803F021
:100A5000BDFF18208DF803000420ADF800006946A2
:100A6000414803F0B3FF04208DF803004002ADF8C5
:100A7000000069463B4803F0A9FF18208DF80300E9
:100A80004FF48060ADF800006946364803F09EFFE1
:100A900008BD38B5044620798DF8000000208DF897
:100AA00001008DF8020001208DF80300684603F074
:100AB000C4FC38BD1CB52D4903C9CDE90001FFF7C1
:100AC0008CFFFFF7A4FF214C4FF4E1300090284841
:100AD0001F4908640846DDE90012C0E911122046EA
:100AE000FFF7D7FF234640F2031222A1184800F077
:100AF00026FC43E07C0C020873657269616C20215E
:100B00003D2052545F4E554C4C000000282573295F
:100B100020617373657274206661696C656420611D
:100B2000742025733A2564200A000000636667205C
:100B3000213D2052545F4E554C4C00008C0C020855
:100B400080E100E09A0C0208A50C020804000020D5
:100B5000180500200C0000206C0500201400002067
:100B6000C0050020000C014000080140B00C020844
:100B7000680C02087561727431000000164C4FF465
:100B8000E13000901548164908640846DDE9001276
:100B9000C0E911122046FFF77CFF234640F2031202
:100BA00010A10F4800F0CBFB104C4FF4E130009047
:100BB0000A480F4908640846DDE90012C0E911122D
:100BC0002046FFF766FF234640F2031209A10848BA
:100BD00000F0B5FB1CBD00000C000020680C0208F2
:100BE0006C05002075617274320000001400002052
:100BF000C005002075617274330000002DE9F84FC4
:100C000006460F4615466EB9002000905D23F44A53
:100C1000F4A1F9A009F0A0F800BF9DF80000002899
:100C2000FBD000BFA846F46C6CB900200090612393
:100C3000EB4AF9A1F0A009F08FF800BF9DF8000081
:100C40000028FBD000BF22E003F064F88246E08871
:100C5000A18888420FD0E188206810F80190E088D0
:100C6000401CE080E188B06CC0F38F20814206DB3D
:100C70000020E08003E0504603F050F809E05046C1
:100C800003F04CF887F800907F1C6D1E00BF002D0C
:100C9000DAD100BFA8EB0500BDE8F88F2DE9F843D5
:100CA00005460E4614466DB9002000908723DF4AA2
:100CB000CCA1D1A009F050F800BF9DF80000002899
:100CC000FBD000BFA0462F6D6FB9002000908B2392
:100CD000D64AD7A1C8A009F03FF800BF9DF8000090
:100CE0000028FBD000BF0EE03178286C82682846CF
:100CF0009047401C04D1411E384600F0E3FC02E05E
:100D0000761C641E00BF002CEED1A8EB0400BDE8E9
:100D1000F8832DE9F84304460E4617464FF00008C5
:100D200004B16EB900200090A423C54AC5A1B2A0A9
:100D300009F012F800BF9DF800000028FBD000BFAA
:100D4000E56C6DB900200090A623BD4AC8A1AAA0F9
:100D500009F002F800BF9DF800000028FBD000BF9A
:100D600002F0D8FF8146286801280AD001202860B7
:100D7000206C01233A463146D0F810C02046E047A7
:100D800001E06FF00608484602F0C8FFB8F1000F16
:100D900002D13846BDE8F883404608F03DFC00200B
:100DA000F8E7F8B5054600266DB900200090E2236B
:100DB000B44AB5A190A008F0CFFF00BF9DF8000095
:100DC0000028FBD000BF2C460020E0642065206C8A
:100DD000006830B1206C04F144010268204690475D
:100DE00006463046F8BDF8B504460E466CB90020FC
:100DF0000090F423A84AA4A17FA008F0ADFF00BF93
:100E00009DF800000028FBD000BF254616F4007FA7
:100E100006D0E08A10F4007F02D16FF00700F8BD21
:100E200016F4006F06D0E08A10F4006F02D16FF064
:100E30000700F4E716F4807F06D0E08A10F4807F84
:100E400002D16FF00700EAE716F4806F06D0E08A5F
:100E500010F4806F02D16FF00700E0E7F0B220835A
:100E6000E86C002853D116F4007F1BD0042009F051
:100E70007BF9074677B9002000904FF48673864AC5
:100E80007BA15DA008F068FF00BF9DF8000000286E
:100E9000FBD000BF00203860EF64208B40F400706E
:100EA000208334E016F4807F2FD0A96CC1F38F210A
:100EB00001F1080009F058F9074677B900200090C1
:100EC0004FF48C73744A54A14BA008F045FF00BF47
:100ED0009DF800000028FBD000BF07F10800386033
:100EE00040220021386808F0B8FB0020B880F88064
:100EF000EF64208B40F480702083286C4FF4807264
:100F0000102143682846984701E00020E864286DD6
:100F100000284BD116F4006F1FD0282009F024F9C7
:100F2000074677B9002000904FF498735A4A5BA1A6
:100F300031A008F011FF00BF9DF800000028FBD091
:100F400000BF002304220821381D00F0C8FC2F65D3
:100F5000208B40F40060208328E016F4806F23D0BB
:100F60000C2009F001F9074677B9002000904FF4F2
:100F70009E73494A4EA120A008F0EEFE00BF9DF8E6
:100F800000000028FBD000BF384600F07DFB2F6535
:100F9000208B40F480602083286C4FF48062102105
:100FA00043682846984701E000202865002036E77E
:100FB000F8B5044674B9002000904FF4A973414A73
:100FC00031A10DA008F0C8FE00BF9DF80000002868
:100FD000FBD000BF2546A07E012876DD0020F8BDAD
:100FE000D80C020873657269616C20213D2052544F
:100FF0005F4E554C4C000000282573292061737307
:10100000657274206661696C656420617420257363
:101010003A2564200A00000072785F6669666F20D6
:10102000213D2052545F4E554C4C0000E70C020805
:10103000747820213D2052545F4E554C4C000000E6
:10104000F60C02082873657269616C20213D2052FC
:10105000545F4E554C4C292026262028646174612B
:1010600020213D2052545F4E554C4C290000000079
:1010700072785F646D6120213D2052545F4E554C63
:101080004C000000050D020864657620213D2052C9
:10109000545F4E554C4C0000140D020874785F6488
:1010A0006D6120213D2052545F4E554C4C00000094
:1010B00074785F6669666F20213D2052545F4E55FB
:1010C0004C4C0000230D0208FFE7208B10F4807FBA
:1010D00023D0EE6C86B90020009040F25D13FE4AEA
:1010E000AFF2CC01AFF2F00008F036FE00BF9DF881
:1010F00000000028FBD000BF304609F009FA0020AC
:10110000E864208B20F480702083286C4FF4806288
:10111000112143682846984720E0208B10F4007F77
:101120001CD02E6D86B9002000904FF4B573EA4AAA
:10113000AFF2C401AFF2401008F00EFE00BF9DF800
:1011400000000028FBD000BF304609F0E1F9002084
:10115000E864208B20F40070208300BF208B10F403
:10116000806F23D0EE6C86B9002000904FF4BB73E3
:10117000D94AAFF2C401AFF2801008F0EDFD00BF14
:101180009DF800000028FBD000BF304609F0C0F9F0
:1011900000202865208B20F480602083286C4FF489
:1011A0008062112143682846984720E0208B10F484
:1011B000006F1CD02E6D86B90020009040F2831382
:1011C000C54AAFF22811AFF2D01008F0C5FD00BF3C
:1011D0009DF800000028FBD000BF304609F098F9C8
:1011E00000202865208B20F40060208300BF0020B1
:1011F000F8BD2DE9F8430446884617461D4684B9D4
:10120000002000904FF4CA73B44AAFF28411AFF2D9
:10121000182008F0A1FD00BF9DF800000028FBD0B9
:1012200000BF15B90020BDE8F8832646208B10F4D6
:10123000807F05D02A4639463046FFF7DFFCF2E7CB
:10124000208B10F4007F05D02A4639463046FFF740
:1012500060FDE8E72A463946304600F08BF9E2E7C0
:101260002DE9F8430446884617461D4684B90020F8
:1012700000904FF4D6739A4AAFF2F411AFF288207F
:1012800008F06AFD00BF9DF800000028FBD000BFF9
:1012900015B90020BDE8F8832646208B10F4806F36
:1012A00005D02A4639463046FFF7F8FCF2E7208B96
:1012B00010F4006F05D02A463946304600F0B2F9E6
:1012C000E8E72A463946304600F07EF9E2E7F8B50D
:1012D00004460E46174684B90020009040F2C5131C
:1012E000804AAFF25C21AFF2F02008F035FD00BF7C
:1012F0009DF800000028FBD000BF2546012E09D034
:10130000022E02D0032E10D109E0E08A40F0200026
:10131000E08211E0E08A20F02000E0820CE0286CFE
:10132000394602682846904706E0286C3A4631461E
:1013300043682846984700BF00BF0020F8BD2DE94C
:10134000F8430446884616461F4684B9002000909C
:1013500040F2EB13644AAFF27431AFF2643008F03C
:10136000FBFC00BF9DF800000028FBD000BF254615
:1013700000202875E86128625C4868625C48A862C1
:101380005C48E8625C4828635C4868635C48A86322
:10139000EF63B2B24146284606F00AF9BDE8F88389
:1013A0002DE9FE4305460E46F0B2012806D002287C
:1013B0007BD0032878D0042874D17BE04FF0FF372E
:1013C000EC6C84B90020029040F20B234D4AAFF23E
:1013D000B831AFF2DC3008F0BFFC00BF9DF8080068
:1013E0000028FBD000BF288B10F4807F0FD1002095
:1013F000029040F20E23434A43A1AFF2044008F0AA
:10140000ABFC00BF9DF808000028FBD000BF2AE01D
:10141000286CC168284688470746781C00D123E01D
:1014200002F078FC8146A28821688F54A088401C75
:10143000A080A188A86CC0F38F20814201DB00202E
:10144000A080A088E18888420AD1E088401CE08022
:10145000E188A86CC0F38F20814201DB0020E0808E
:10146000484602F05BFCD3E700BFE869D0B102F068
:1014700051FC8146A088E188884203DBA088E1888E
:10148000401A06E0E088A188411AA86CC0F38F20BA
:10149000401A8046484602F041FC41462846EA6927
:1014A000904700BF63E000E058E02C6D204600F05C
:1014B00089F95CE02C6D002301AA6946201D00F02B
:1014C000D9FA01AA02A9201D00F0A3FBB0BB01209C
:1014D0002060286C022332E0230D0208330D02083D
:1014E000420D0208520D0208640D0208A30D000807
:1014F000E70D0008B10F0008F311000861120008A1
:10150000CF1200087A0D020873657269616C2D3E76
:10151000706172656E742E6F70656E5F666C616768
:1015200020262052545F4445564943455F464C416E
:10153000475F494E545F52580000000005E00769BC
:101540002846DDE90121B84701E000202060286A33
:1015500018B12A6A28460099904708E0EF6C3412C7
:1015600021462846EA6990470020386000BF00BF46
:10157000BDE8FE832DE9F84306460F4614467EB9C2
:10158000002000902C233E4AAFF2A851AFF29850B1
:1015900008F0E2FB00BF9DF800000028FBD000BF70
:1015A000A0460AE0306CC1683046884705463D7069
:1015B0007F1C641E0A2D00D101E0002CF2D100BF77
:1015C000A8EB0400BDE8F883F8B504460E461546BE
:1015D0007CB9002000903E232A4AAFF2F851AFF2C6
:1015E000E85008F0B9FB00BF9DF800000028FBD0D0
:1015F00000BF2F4612E030780A2808D1207E10F074
:10160000400F04D0206C0D2182682046904731782D
:10161000206C826820469047761C6D1E002DEAD112
:10162000781BF8BD2DE9F047044688461646256D1F
:101630004FF0FF3332464146281D00F07EF9074641
:10164000CFB902F067FB8146286801280DD0012040
:101650002860484602F062FB206C02233246414675
:10166000D0F810C02046E04702E0484602F056FBA2
:101670003046BDE8F087384607F0CEFF0020F8E797
:10168000B80C0208C80C020838B504466CB9002032
:1016900000902323674A68A16DA008F05DFB00BF9E
:1016A0009DF800000028FBD000BF02F033FB054688
:1016B00000202060201D4060006000BF284602F02E
:1016C0002DFB38BD2DE9F34182B005466DB90020F0
:1016D00001903123664A58A15DA008F03DFB00BF90
:1016E0009DF804000028FBD000BF002609F070FD23
:1016F000044602F00FFB07462868012858D0281D31
:1017000000F08FF868B9002001903A23584A59A197
:101710004FA008F021FB00BF9DF804000028FBD07B
:1017200000BF039810B96FF0010644E00020206369
:10173000204609F0D6FE281D04F11401426811600C
:1017400042684A604160086000BF00BF02F0E2FAF0
:10175000804607F04BFF88B1454952A008F0FCFADB
:10176000002001904D23424A57A139A008F0F4FA15
:1017700000BF9DF804000028FBD000BF404602F0E7
:10178000CDFA00BF0398002809DD03AA002104F167
:101790004C000AF033F904F14C000AF053F83846D3
:1017A00002F0BCFA09F0EBFA266B02F0B3FA074636
:1017B0000020286000BF384602F0B0FA304604B07E
:1017C000BDE8F081F8B504466CB9002000907023A4
:1017D0003E4A19A11EA008F0BFFA00BF9DF8000004
:1017E0000028FBD000BF2068012800D1F8BD02F01E
:1017F00091FA064601202060201D00F012F858B929
:101800006068A0F11405284609F0E5FC304602F0B6
:1018100085FA09F0B4FA02E0304602F07FFA00BF20
:10182000E4E701460868884201D1012070470020A2
:10183000FCE700008B0D0208636F6D706C657469C6
:101840006F6E20213D2052545F4E554C4C000000DD
:101850002825732920617373657274206661696C31
:1018600065642061742025733A2564200A00000015
:101870009E0D020872745F6C6973745F6973656DA5
:10188000707479282628636F6D706C6574696F6E4B
:101890002D3E73757370656E6465645F6C697374F7
:1018A0002929000046756E6374696F6E5B25735D50
:1018B000207368616C6C206E6F7420757365642092
:1018C000696E204953520A0030000000B10D020831
:1018D0004268116042684A60416008607047F8B52C
:1018E00004460D4616461F466CB900200090292379
:1018F000F94AFAA1FEA008F02FFA00BF9DF80000F7
:101900000028FBD000BF2762258066800020606031
:101910002081608104F1100000F031FA04F1180018
:1019200000F02DFAE80008F01FFCE060E06810B954
:101930006FF00400F8BD0020FCE72DE9FF4F81B0F7
:101940000446884691466CB9002000904B23F04A2B
:10195000E2A1E7A008F000FA00BF9DF8000000280F
:10196000FBD000BF002609F033FC05462088401E4E
:1019700087B202F0CFF9824646E001206060049809
:1019800010B96FF0010669E000BF02F0C3F98346A9
:1019900007F02CFE88B1DE49DEA008F0DDF900205A
:1019A00000905F23DA4AE4A1D1A008F0D5F900BF86
:1019B0009DF800000028FBD000BF584602F0AEF9A9
:1019C00000BF00202863284609F08BFD05F11401B3
:1019D00004F11000FFF77CFF0498002809DD04AA39
:1019E000002105F14C000AF009F805F14C0009F05E
:1019F00029FF504602F092F909F0C1F92E6B02F06E
:101A000089F9824606B129E060892189401A218836
:101A10008842B2D060893840E16841F830806089FE
:101A20003840E16801EBC000C0F804906089401CB8
:101A3000608104F1180000F0A5F970B9A069A0F167
:101A40001405284609F0C7FB504602F067F909F073
:101A500096F9304605B0BDE8F08F00BF504602F061
:101A60005DF92EB9206A18B102212046226A9047FA
:101A70003046EFE72DE9FF4F81B004460F46904610
:101A80006CB900200090A923AC4A94A198A008F05A
:101A900063F900BF9DF800000028FBD000BF6FB9BC
:101AA00000200090AA23A54AA5A191A008F054F90E
:101AB00000BF9DF800000028FBD000BFB8F1000F68
:101AC0000DD100200090AB239C4AA2A188A008F071
:101AD00043F900BF9DF800000028FBD000BF00269E
:101AE00009F076FB05462088401E1FFA80F902F0B7
:101AF00011F9824644E0049810B96FF001067CE0C9
:101B000000BF02F007F9834607F070FD88B18B49EA
:101B100080A008F021F900200090BC23874A86A10C
:101B200073A008F019F900BF9DF800000028FBD051
:101B300000BF584602F0F2F800BF00202863284694
:101B400009F0CFFC05F1140104F11800FFF7C0FE05
:101B50000498002809DD04AA002105F14C0009F0D1
:101B60004DFF05F14C0009F06DFE504602F0D6F82D
:101B700009F005F92E6B02F0CDF8824606B13CE083
:101B8000208961898842B6D0208900EA0900E1688D
:101B900051F830003860208900EA0900E16801EB63
:101BA000C0004068C8F800002089401C208160689F
:101BB000012821D160892189401A618888421BDC73
:101BC0000020606004F1100000F0DCF850B92069DA
:101BD000A0F11405284609F0FEFA504602F09EF8DE
:101BE00009F0CDF8206A18B103212046226A9047F7
:101BF000304605B0BDE8F08F00BF504602F08EF8C9
:101C00002EB9206A18B101212046226A9047304639
:101C1000EFE72DE9F84304460E46174674B9002055
:101C200000904FF488734F4A2CA131A008F094F82B
:101C300000BF9DF800000028FBD000BF2088401E98
:101C400085B202F067F8804620896189884206D112
:101C5000404602F063F86FF00300BDE8F883208986
:101C60002840E16851F83000306020892840E16860
:101C700001EBC00040683860404602F04FF8002099
:101C8000EBE770B5044609F027F90EE002F042F8E0
:101C90000646A069A0F114054FF0FF3028632846DE
:101CA00009F099FA304602F039F804F1180000F012
:101CB00069F80028EAD00EE002F02CF80646206908
:101CC000A0F114054FF0FF302863284609F083FA8D
:101CD000304602F023F847E0C40D020871756575BF
:101CE0006520213D2052545F4E554C4C00000000B1
:101CF0002825732920617373657274206661696C8D
:101D000065642061742025733A2564200A00000070
:101D1000D70D020846756E6374696F6E5B25735D3F
:101D2000207368616C6C206E6F742075736564201D
:101D3000696E204953520A0030000000EA0D020883
:101D4000646174615F70747220213D2052545F4E53
:101D5000554C4C0073697A6520213D2052545F4EEA
:101D6000554C4C00FC0D020804F1100000F00AF87C
:101D70000028A1D009F0BEF809F001F870BD40605C
:101D80000060704701460868884201D10120704711
:101D90000020FCE72DE9F04104460F461546394680
:101DA000204600F013FC064616B13046BDE8F0812F
:101DB0000022394604F1440006F076F8256400203C
:101DC000A06600BFF2E72DE9F047044689461746B2
:101DD0009846384605F0C6FB0646B6B1307D0B285E
:101DE00013D126644946204600F07BFC054615B118
:101DF0002846BDE8F0870822002104F1440007F0DE
:101E00002CFCC4F83C800020F3E74FF0FF30F0E7F3
:101E1000F8B504460D466CB9002000905923F94AE4
:101E2000F9A1FEA007F098FF00BF9DF80000002870
:101E3000FBD000BF697845200155287800F00700E5
:101E400084F844006968A164206CC0B1216C01F180
:101E500044004FF0FF3106F04AF906467EB9206C87
:101E6000806EA04206D1206C006C04F1440102682F
:101E700020469047216C01F1440006F004FA00204E
:101E8000F8BD2DE9F04387B004460E461746984644
:101E9000DDF838906CB9002001907B23E74ADAA185
:101EA000DEA007F059FF00BF9DF804000028FBD01A
:101EB00000BF206C68B9002001907C23DF4AE0A1BC
:101EC000D6A007F049FF00BF9DF804000028FBD012
:101ED00000BF216C01F144004FF0FF3106F007F91B
:101EE0000546002D4AD1206C806EA0420ED0206C99
:101EF000006C04F14401026820469047054615B97C
:101F0000206C846602E06FF007053DE00296002039
:101F100003900497069820F00100401C0690069854
:101F200020F00200069000200590206C006C02A9B1
:101F3000426820469047054615B96FF0070523E033
:101F4000CDF8088000200390CDF81090069820F07E
:101F500001000690069820F00200801C06900020E8
:101F60000590206C006C02A9426820469047054607
:101F700015B96FF0070507E0002504E06FF00700D2
:101F800007B0BDE8F08300BF216C01F1440006F00A
:101F90007AF92846F4E72DE9F04387B004460E4667
:101FA00017469846DDF838906CB900200190C6239A
:101FB000A94A95A199A007F0CFFE00BF9DF80400A3
:101FC0000028FBD000BF206C68B900200190C72317
:101FD000A14A9BA191A007F0BFFE00BF9DF804009D
:101FE0000028FBD000BF216C01F144004FF0FF310D
:101FF00006F07DF80546002D4AD1206C806EA04287
:102000000ED0206C006C04F1440102682046904719
:10201000054615B9206C846602E06FF007053DE0C7
:102020000296002003900497069820F00100401CBF
:102030000690069820F00200069000200590206C83
:10204000006C02A9426820469047054615B96FF01A
:10205000070523E000200290CDF80C80CDF8109009
:10206000069820F001000690069820F00200801CDF
:10207000069000200590206C006C02A94268204662
:102080009047054615B96FF0070507E0002504E005
:102090006FF0070007B0BDE8F08300BF216C01F1CD
:1020A000440006F0F0F82846F4E72DE9F04186B048
:1020B00004460E461746984674B9002000904FF427
:1020C0008873664A50A155A007F046FE00BF9DF8F0
:1020D00000000028FBD000BF206C70B900200090E9
:1020E00040F211135D4A56A14CA007F035FE00BF27
:1020F0009DF800000028FBD000BF216C01F14400D6
:102100004FF0FF3105F0F3FF054695BB206C806E64
:10211000A04211D0206C006C04F1440102682046FA
:102120009047054615B9206C846605E06FF00700FE
:1021300007F072FA002526E001960297CDF80C8090
:10214000059820F00100401C0590059820F0020041
:10215000801C059000200490206C006C01A942684E
:102160002046904705466DB96FF0070007F054FA16
:1021700009E0FFE76FF0070007F04EFA002006B015
:10218000BDE8F08100BF216C01F1440006F07BF84E
:102190002846F4E7F8B504460F4674B900200090CD
:1021A00040F24B132E4A18A11CA007F0D5FD00BF2A
:1021B0009DF800000028FBD000BF3D460DB9284621
:1021C000F8BD216C01F144004FF0FF3105F08FFFA5
:1021D00006462EB16FF0060007F01EFA2846EFE71C
:1021E000002007F019FA206C806EA04243D0206CCA
:1021F000006C04F1440102682046904706468EBBFD
:10220000206C30E00F0E020864657669636520215A
:102210003D2052545F4E554C4C0000002825732938
:1022200020617373657274206661696C65642061F6
:10223000742025733A2564200A000000200E02084D
:102240006465766963652D3E62757320213D205279
:10225000545F4E554C4C0000360E02084C0E0208DE
:102260005C0E020801E0846605E06FF0070007F0ED
:10227000D3F9002612E00DE0206C006C294642687C
:1022800020469047064626B96FF0070007F0C4F9CC
:1022900002E0ED68002DEFD100BF00BF216C01F11D
:1022A000440005F0F0FF28468AE738B504460025CB
:1022B00084B90020009040F28913854AAFF2B8013A
:1022C000AFF2A80007F048FD00BF9DF8000000280D
:1022D000FBD000BF206C80B9002000904FF4C57384
:1022E0007B4AAFF2A401AFF2CC0007F035FD00BF8E
:1022F0009DF800000028FBD000BF216C01F14400D4
:102300004FF0FF3105F0F3FE054635B16FF00600E2
:1023100007F082F96FF0060038BD002007F07CF965
:10232000206C806EA04217D0206C006C04F1440138
:10233000026820469047054615B9206C84660BE07C
:102340006FF0070007F068F9216C01F1440005F017
:102350009AFF6FF00700DFE72846DDE738B504464F
:1023600084B90020009040F2B1135A4AAFF26811CC
:10237000AFF2581007F0F0FC00BF9DF800000028F5
:10238000FBD000BF206C80B9002000904FF4D973BF
:10239000504AAFF25411AFF27C1007F0DDFC00BFE1
:1023A0009DF800000028FBD000BF206C806EA0428A
:1023B0000FD00020009040F2B313464A46A1AFF27E
:1023C000A41007F0C9FC00BF9DF800000028FBD056
:1023D00000BF216C01F1440005F055FF002038BD1D
:1023E00030B587B0044684B9002001904FF4E07303
:1023F000414AAFF2EC11AFF2DC1007F0ADFC00BFC8
:102400009DF804000028FBD000BF206C80B900209C
:10241000019040F2C113384AAFF2DC11AFF2042050
:1024200007F09AFC00BF9DF804000028FBD000BF15
:102430001422002102A807F010F9069820F00100EC
:10244000401C0690206C006C02A942682046904710
:102450000546284607B030BD30B587B0044684B97C
:10246000002001904FF4E873244AAFF26421AFF2E8
:10247000542007F071FC00BF9DF804000028FBD039
:1024800000BF206C80B90020019040F2D1131B4A9C
:10249000AFF25421AFF27C2007F05EFC00BF9DF844
:1024A00004000028FBD000BF1422002102A807F07E
:1024B000D4F8069820F00200801C0690206C006C76
:1024C00002A94268204690470546284607B030BD1D
:1024D000740E0208840E02086465766963652D3EF9
:1024E0006275732D3E6F776E6572203D3D20646589
:1024F0007669636500000000970E0208A30E0208CB
:102500002DE9F8430446884616461F4625466DB910
:10251000002000902423854A85A189A007F01CFC97
:1025200000BF9DF800000028FBD000BFA86E68B96E
:102530000020009025237D4A89A181A007F00CFC92
:1025400000BF9DF800000028FBD000BF3B4632468C
:102550000021A86EFFF7A9FDBDE8F8832DE9F84337
:102560000446884616461F4625466DB90020009051
:102570003223814A6EA172A007F0EEFB00BF9DF8E6
:1025800000000028FBD000BFA86E68B900200090B2
:102590003323794A72A16AA007F0DEFB00BF9DF8E1
:1025A00000000028FBD000BF3B4600223146A86E49
:1025B000FFF77BFDBDE8F883034611B1012902D185
:1025C00000E000E000BF00BF00207047F8B50446FF
:1025D0000E466CB9002000904B23684A54A158A0C5
:1025E00007F0BAFB00BF9DF800000028FBD000BF39
:1025F00025460B20287500206862A862E8626048C2
:102600002863604868636048A8630322314628460F
:1026100004F0CEFFF8BD2DE9F8430446884616467F
:102620001F4625466DB9002000906623574A58A1E1
:1026300043A007F091FB00BF9DF800000028FBD0ED
:1026400000BF286C68B90020009067234F4A55A14D
:102650003BA007F081FB00BF9DF800000028FBD0E5
:1026600000BF3B46324600212846FFF71EFDBDE86D
:10267000F8832DE9F8430446884616461F4625464A
:102680006DB90020009074234C4A41A12CA007F0A2
:1026900063FB00BF9DF800000028FBD000BF286C42
:1026A00068B9002000907523444A3EA124A007F099
:1026B00053FB00BF9DF800000028FBD000BF3B4645
:1026C000002231462846FFF7F0FCBDE8F8830346B8
:1026D00011B1012902D100E000E000BF00BF0020DD
:1026E0007047F8B504460E466CB9002000908C2364
:1026F000334A34A112A007F02FFB00BF9DF8000061
:102700000028FBD000BF25460C20287500206862F9
:10271000A862E8622F4828632F4868632F48A8639F
:1027200003223146284604F043FFF8BDB20E0208EA
:1027300062757320213D2052545F4E554C4C000071
:102740002825732920617373657274206661696C32
:1027500065642061742025733A2564200A00000016
:102760006275732D3E6F776E657220213D20525445
:102770005F4E554C4C000000C70E0208DD0E0208EB
:10278000012500085D250008B9250008F40E02089F
:1027900064657669636520213D2052545F4E554C37
:1027A0004C0000006465766963652D3E6275732098
:1027B000213D2052545F4E554C4C0000080F02083A
:1027C0001D0F020864657620213D2052545F4E554E
:1027D0004C4C00001726000873260008CF2600087E
:1027E0001FB50121092003F0B0F84FF46040ADF8A7
:1027F000000003208DF8020018208DF803006946C0
:10280000274802F0E3F827A22849294800F036F9C2
:1028100001208DF8020010208DF803002048254982
:1028200008608014888008468088ADF800000A4659
:102830009188106802F0A9FA1E490868694602F0FA
:10284000C5F81C4B17A21CA11D48FFF7BCFA4FF49A
:10285000C06001F0D7FD0721032002F0FEFC8020BC
:10286000019000208DF808000C208DF8090001204F
:102870008DF80A0001A801F0C9FE17208DF80C00A0
:1028800000208DF80D008DF80E0001208DF80F004E
:1028900003A801F0D2FD1FBD10B5FFF7A1FF10BDC9
:1028A000000C014073706932000000001406002023
:1028B000003800401C0000207370693230000000B6
:1028C0008406002070B586B006460C46356C01A81B
:1028D00003F011FB6078082803DC0020ADF8080045
:1028E0000AE06078102804DC4FF40060ADF80800BE
:1028F00002E0082006B070BD606800F0EAF8ADF8AC
:102900001000207810F0020F03D00220ADF80A006A
:1029100002E00020ADF80A00207810F0010F03D08B
:102920000120ADF80C0002E00020ADF80C0020788A
:1029300010F0040F03D00020ADF8120002E0802058
:10294000ADF812000020ADF804004FF48270ADF82D
:1029500006004FF40070ADF80E00E86E03F01AF9AF
:1029600001A9E86E03F04AF90121E86E03F0D9FAF3
:102970000021E86E03F07CFC0020BBE72DE9FC5F42
:1029800005460C46286C019005F144090198C06E7B
:102990000090EE6BD4F808A0207C10F0010F03D05B
:1029A000B188306802F01CFA99F8010008282BDC85
:1029B0002768D4F8048021E04FF0FF0B0FB117F81F
:1029C00001BB00BF0221009803F0E3FC0028F9D00E
:1029D0005946009803F08CFB00BF0121009803F0DA
:1029E000D8FC0028F9D0009803F097FB00F0FF0B0B
:1029F000B8F1000F01D008F801BB00BF5FEA0A0080
:102A0000AAF1010AD8D12EE099F8010010282ADC99
:102A10002768D4F8048020E04FF0FF0B0FB137F89F
:102A200002BB00BF0221009803F0B3FC0028F9D0DC
:102A30005946009803F05CFB00BF0121009803F0A9
:102A4000A8FC0028F9D0009803F067FB8346B8F192
:102A5000000F01D028F802BB00BF5FEA0A00AAF10C
:102A6000010AD9D100BF207CC0F3400018B1B18861
:102A7000306802F08AF9A068BDE8FC9F70B5054691
:102A80000C4616460121084602F05FFF2E4885429B
:102A900005D1E0660121801402F057FF13E02B48B6
:102AA000854205D1E0660121001402F077FF0AE0BB
:102AB0002748854205D1E0660121C01302F06EFF70
:102AC00001E0062070BD234A31462046FFF762F937
:102AD000F8E70146204A1268B1EB520F07D31E4AAD
:102AE00012681E4BB3EB520F01D300202AE01A4AA2
:102AF0001268B1EB920F01D3082023E0164A126846
:102B0000B1EBD20F01D310201CE0134A1268B1EBD5
:102B1000121F01D3182015E00F4A1268B1EB521FA3
:102B200001D320200EE00C4A1268B1EB921F01D3B2
:102B3000282007E0084A1268B1EBD21F01D33020E9
:102B400000E03820704700000030014000380040AD
:102B5000003C0040240000205C00002080A81201FE
:102B600008B509E00021009102E00099491C00919C
:102B700000991429F9D3401E0028F3D108BDFEB5F1
:102B800006460D461446012704F01F0028438DF821
:102B90000800FF208DF8090014F0800F00D00227F4
:102BA000012001AB3A4602A900903046FFF7F3F945
:102BB0009DF80400FEBD2DE9F84F04460D4616466B
:102BC0001F4601F0A7F8824606F01F0028438DF843
:102BD00000008DF80170E8464FF002094B460022D4
:102BE00041462046FFF761FA504601F097F8BDE8EC
:102BF000F88F70B505460C4604F06000FB49097873
:102C0000884210D003231F22A0212846FFF7D3FFBC
:102C1000C4F341131F2280212846FFF7CCFF04F0A4
:102C20006000F249087070BD70B506460C46154646
:102C300021463046FFF7DDFF2B4622464021304635
:102C4000FFF7B9FF70BD70B505460C4604F00702EA
:102C500075212846FFF7E8FF70BD70B505460C46A4
:102C600021462846FFF7C5FF224600212846FFF7E8
:102C700086FF70BD2DE9F04106460C462246D42160
:102C80003046FFF7D1FF0122D2213046FFF7CCFFBB
:102C90000F20FFF765FF00BFEA213046FFF7DDFF99
:102CA00010F0010FF8D10022D2213046FFF7BCFF0F
:102CB000D8213046FFF7D1FF0746D9213046FFF72C
:102CC000CCFF47EA00252846BDE8F08170B50646EE
:102CD0000D4614462A46D4213046FFF7A5FFE2B23E
:102CE000D6213046FFF7A0FF2212D7213046FFF74A
:102CF0009BFF02E00F20FFF733FFEA213046FFF78A
:102D0000ACFF10F0010FF5D170BD70B505461B2169
:102D10002846FFF76EFF1B212846FFF79EFF04465B
:102D200023461B22A0212846FFF745FF204670BD01
:102D300070B505460C461B212846FFF75AFFE3B243
:102D40001B2280212846FFF736FF70BD70B505466F
:102D500011212846FFF78EFF044604F4007614F490
:102D6000806F01D0012070BD0020FCE710B5A048A5
:102D70001CF0F6FF9FA006F0EFFF10BDA148A0F1E8
:102D800014014860143881611430086014384861B7
:102D900041F2FF30886041F6FF119A481438C16152
:102DA000012098491439086101219648143841627C
:102DB000954908600846006894490860704770B5F6
:102DC00004462546D5F880604FF0FF3104F18400B9
:102DD00005F08DF9FFF7D2FFFF2300221946304698
:102DE000FFF7E9FE022008F0DEFB0020884908809A
:102DF000002208213046FFF717FF00220921304644
:102E0000FFF712FFFE220C213046FFF70DFF1322C1
:102E10000D213046FFF708FFFE220A213046FFF75A
:102E200003FF13220B213046FFF7FEFEFF22042191
:102E30003046FFF7F9FE132205213046FFF7F4FE76
:102E4000FF2202213046FFF7EFFE13220321304616
:102E5000FFF7EAFEFF2206213046FFF7E5FE1F22BC
:102E600007213046FFF7E0FEA12238213046FFF768
:102E7000DBFE0D22C0213046FFF7D6FE3323C222EF
:102E800080213046FFF797FE1522C4213046FFF718
:102E9000CBFE4022C3213046FFF7C6FE3F22C921A8
:102EA0003046FFF7C1FE1222C6213046FFF7BCFEB6
:102EB0000C22C7213046FFF7B7FEEE22CA2130466A
:102EC000FFF7B2FE0522CB213046FFF7ADFE75209D
:102ED000425DE1213046FFF7A7FE7420425DE0210C
:102EE0003046FFF7A1FE7320425DE3213046FFF735
:102EF0009BFE7220425DE2213046FFF795FE712075
:102F0000425DE5213046FFF78FFE95F87020E42101
:102F10003046FFF789FE002275213046FFF784FE18
:102F20004FF4807200213046FFF7D0FE4FF48072DC
:102F300010213046FFF7CAFE1E213046FFF759FE2A
:102F400080231E2219463046FFF735FE1F213046EA
:102F5000FFF74FFEFF231B2280213046FFF72BFE99
:102F600004231F2280213046FFF725FE0221304630
:102F7000FFF769FE40F6765214213046FFF7A6FEB1
:102F8000022008F010FB04F1840005F07CF9002019
:102F900070BD2DE9F04105460E4614462F46012E20
:102FA0000CD134B1062207F17001204606F079FBFE
:102FB00003E04FF0FF30BDE8F08100E000BF00BF4C
:102FC0000020F8E7024600207047014600207047C5
:102FD0002DE9F04104460D4616461F466FF00500E8
:102FE00006F01AFB0020BDE8F0810000340000204C
:102FF00018070020656E6332386A36305F69737275
:103000000D0A0000E40600202C0000203000002003
:10301000360000202DE9F04104460D4616461F46B5
:103020006FF0050006F0F8FA0020BDE8F0812DE908
:10303000FF5F05460E46A846D8F880B00027FD4839
:1030400000680069002827D1FBA006F085FE1BE080
:1030500001A84FF0FF33052201210090FC4805F044
:10306000F4FA0290029870B1002000904FF4D073EF
:10307000F84AF9A1FDA006F06FFE00BF9DF8000020
:103080000028FBD000BF00BFEA48006800690028A4
:10309000DED0FEA006F060FE4FF0FF3105F18400A7
:1030A00005F025F85846FFF730FE0390E148006828
:1030B0008068C2B202215846FFF7B6FDDD480068BD
:1030C0008068C0F3072203215846FFF7ADFD308921
:1030D000D8490968C86000231A467A215846FFF784
:1030E0006AFD3189F1A006F037FE34462BE07A20E4
:1030F0000290608900906368012202A9D8F88000DC
:10310000FEF7BFFED4F804904FF0000A17E099F8DC
:103110000010EBA006F020FE781C10F0070F02D183
:10312000E9A006F019FE781C10F00F0F02D1DEA006
:1031300006F012FE7F1C09F101090AF1010A6089FB
:103140005045E4D82468002CD1D1D7A006F004FE65
:10315000B8480068DD490968884233D1DCA006F030
:10316000FBFDB44800688068C2B204215846FFF7EE
:103170005BFDB04800688068C0F30722052158460F
:10318000FFF752FDAB4800688068AA490968C96822
:103190000844C2B206215846FFF746FDA54800681C
:1031A0008068A4490968C9680844C0F30722072158
:1031B0005846FFF739FD08231F2280215846FFF7A4
:1031C000FAFC02E0C8A006F0C7FD00209949096892
:1031D0000861984800684068964908601C21584674
:1031E000FFF73BFD10F0020F05D080231F22A02126
:1031F0005846FFF7E0FC58460399FFF799FD05F1A3
:10320000840005F040F8002004B0BDE8F09F2DE9EF
:10321000F04F89B00746B946D9F8800008904FF0C2
:10322000000A4FF0FF3107F1840004F060FF0898B6
:10323000FFF76BFD07901C210898FFF70EFD044671
:10324000DBE0002514F0400F0ED0AEA006F084FDA8
:103250001B210898FFF7CDFC40231B22A0210898D2
:10326000FFF7A9FC45F0400514F0200F04D0A8A0FA
:1032700006F072FD45F0200514F0100F11D0A7A044
:1032800006F06AFD0898FFF761FD064613210898CD
:10329000FFF7F0FC45F01005314648461CF06BFD89
:1032A00000BF14F0080F52D01C210898FFF7A1FCB2
:1032B00008231C22A0210898FFF77DFC01208349E8
:1032C00009680861814800684068804908600846CC
:1032D00000680069002833D194A006F03DFD7B48CA
:1032E00000688068C2B204210898FFF79DFC774807
:1032F00000688068C0F3072205210898FFF794FC56
:1033000072480068806871490968C9680844C2B297
:1033100006210898FFF788FC6C48006880686B49B4
:103320000968C9680844C0F3072207210898FFF715
:103330007BFC08231F2280210898FFF73CFC02E059
:1033400089A006F009FD0121414805F00AF914F0B1
:10335000040F04D08DA006F0FFFC45F0040514F026
:10336000020F16D08CA006F0F7FC1F210898FFF77B
:1033700040FC80231F2219460898FFF71CFC80237D
:103380001F22A0210898FFF716FC45F00205FFF761
:10339000F5FC14F0010F21D087A006F0DDFC002021
:1033A0008C4908801F210898FFF723FC40231F2227
:1033B00080210898FFF7FFFB40231F22A0210898D7
:1033C000FFF7F9FB1F210898FFF713FC04231F22C6
:1033D00080210898FFF7EFFB45F001051C210898B4
:1033E000FFF707FC2B461C22A0210898FFF7E3FB00
:1033F0001C210898FFF731FC044634F040007FF4AC
:1034000020AF39210898FFF728FC8346BBF1000F55
:103410000ED07048027800210898FFF705FC6D482F
:103420000088021201210898FFF7FEFB0022D3E07A
:1034300068E100002C0000205B54785D206E6F2056
:10344000656D70747920627566666572210D0A007B
:10345000F8060020540F0208726573756C74203DE5
:103460003D2052545F454F4B000000002825732932
:1034700020617373657274206661696C6564206194
:10348000742025733A2564200A0000005B54785D9F
:10349000207761697420656D707479206275666645
:1034A000657220646F6E65210D0A000074785F6498
:1034B000756D702C2073697A653A25640D0A0000D9
:1034C000253032782000000020200000300000204D
:1034D0005B54785D2073746F702C20726573746117
:1034E0007274210D0A0000005B54785D20627573D0
:1034F000792C2061646420746F20636861696E2197
:103500000D0A00004549525F504B5449460D0A00D0
:103510004549525F444D4149460D0A004549525FB5
:103520004C494E4B49460D0A000000005B74782060
:103530006973725D20547820636861696E206E6FD4
:103540007420656D7074792C20636F6E74696E756C
:10355000652073656E6420746865206E65787420DC
:10356000706B74210D0A00005B7478206973725DC2
:1035700020547820636861696E20656D7074792CC1
:103580002073746F70210D0A000000004549525FDE
:10359000574F4C49460D0A004549525F5458455211
:1035A00049462072652D73746172742074782063AB
:1035B0006861696E210D0A004549525F52584552B3
:1035C00049462072652D7374617274207278210DE2
:1035D0000A000000360000203A210898FFF7CFFAD1
:1035E000F849088000223A210898FFF7C8FAF549FF
:1035F000098841EA0020F349088000223A2108980E
:10360000FFF7BDFA804600223A210898FFF7B7FA83
:1036100048EA0028A8F1040800223A210898FFF798
:10362000AEFA069000223A210898FFF7A8FA069908
:1036300041EA00200690069810F0800F02D14FF06A
:1036400000084BE01FFA88F10022022014F04AFE25
:103650008246BAF1000F41D0002005904146DAA021
:1036600006F07AFB564633E03A20029070890090CB
:10367000012202A973680898FEF78DFC7068049017
:10368000002003901FE004980178AFF2CC1006F000
:1036900063FB0598401C10F0070F03D1AFF2D81060
:1036A00006F05AFB0598401C10F00F0F02D1CAA07B
:1036B00006F052FB0598401C05900498401C0490AD
:1036C0000398401C0390718903988142DBD83668C7
:1036D000002EC9D1C0A006F03FFB00BFB948027858
:1036E0000C210898FFF7A0FAB648008802120D21B5
:1036F0000898FFF799FA40231E2280210898FFF7C7
:103700005AFA0DE01F210898FFF773FA04231F22CD
:1037100080210898FFF74FFA079840F04000079083
:10372000DDE90710FFF704FB07F1840004F0ABFDAF
:10373000504609B0BDE8F08F7CB50646304603F030
:1037400011FF044634B93146A4A006F005FB6FF022
:1037500005007CBD08208DF8010004208DF80000D4
:10376000A548019069462046FEF752FBA821A348D0
:103770001DF0D1F80022A2A1A34804F025FE9F4825
:10378000C0F88040FF23002219462046FFF713FAB5
:10379000012007F008FF72212046FFF75EFA9749E3
:1037A00081F8760003212046FFF764FA054605F00C
:1037B0000F00924981F87700C5F3051081F8780071
:1037C00002212046FFF756FAA91240EA0140C00044
:1037D0008A49C8670846C06F8C4988421BD08CA0B4
:1037E00006F0BAFA854890F8761091A006F0B4FA7F
:1037F000824890F8771092A006F0AEFA7F4890F8D1
:10380000781093A006F0A8FA7C48C16F94A006F047
:10381000A3FA08209DE71420784981F8700001215F
:10382000764880F87110A72180F87210B32180F8D3
:103830007310342180F87410562180F8751002201E
:103840006E4908758A4848628A4888628A48C86210
:103850008A4808638A4848638A4888638A48886631
:103860008A48C86600228AA16448843004F01CFBA0
:103870008AA162481CF068FA00206AE72DE9FC473B
:103880005E48D0F880404FF0FF31843004F02FFCC8
:1038900083A006F061FA72212046FFF7DEF90546A3
:1038A000294685A006F058FA88A006F055FA1B2193
:1038B0002046FFF7D2F906461C212046FFF7CDF936
:1038C00005461D212046FFF7C8F907461E21204660
:1038D000FFF7C3F980461F212046FFF7BEF9814656
:1038E0003B464246494682A0CDE9005606F034FAEE
:1038F0008BA006F031FAC3212046FFF7AEF905464A
:10390000C2212046FFF7A9F90646C0212046FFF74D
:10391000A4F907462B463246394689A006F01CFA20
:1039200090A006F019FA0C212046FFF796F981467F
:103930000D212046FFF791F949EA00250E21204686
:10394000FFF78BF981460F212046FFF786F949EAF8
:1039500000260A212046FFF780F981460B212046E8
:10396000FFF77BF949EA002708212046FFF775F9A0
:10397000814609212046FFF770F949EA00283346BD
:103980003A46414687A0009506F0E6F9CA2120464E
:10399000FFF763F98046CB212046FFF75EF948EA3E
:1039A000002539212046FFF758F9064638212046E0
:1039B000FFF753F907462B463246394683A006F0F7
:1039C000CBF911E13600002072785F64756D702CC0
:1039D0002073697A653A25640D0A000073706920C6
:1039E000646576696365202573206E6F7420666F49
:1039F000756E64210D0A0000002D310118070020AA
:103A00006574685F74780000F806002018042800C8
:103A1000454E4332384A36302050485920494420D8
:103A20006E6F7420636F7272656374210D0A0000FB
:103A3000656D61635F7265763A25640D0A0000006A
:103A40007068795F7265763A253032580D0A000049
:103A50007068795F706E3A253032580D0A000000A8
:103A60007068795F69643A253038580D0A000000A3
:103A7000BF2D0008C52F0008CB2F0008D12F00084C
:103A800015300008932F00080F3200082F3000086F
:103A9000656E6332386A3630000000006530000021
:103AA0002D2D20656E6332386A3630207265676965
:103AB00073746572733A0A00487752657649443ADE
:103AC000203078253032580A00000000436E7472AE
:103AD0006C3A2045434F4E312045434F4E322045EE
:103AE00053544154202045495220204549450A005D
:103AF00020202020202020307825303258202030EF
:103B00007825303258202030782530325820203027
:103B1000782530325820203078253032580A00007D
:103B20004D414320203A204D41434F4E31204D41DD
:103B3000434F4E33204D41434F4E340A00000000A6
:103B400020202020202020307825303258202020AE
:103B50003078253032582020203078253032580AED
:103B60000000000052782020203A2045525853543B
:103B700020204552584E4420204552585752505408
:103B800020455258524450542045525846434F4EB7
:103B90002045504B54434E54204D414D58464C0AFD
:103BA0000000000020202020202020307825303404
:103BB000582030782530345820307825303458203B
:103BC000203078253034582020000000307825300F
:103BD00032582020202030782530325820202020D4
:103BE0003078253034580A0023A006F0B5F8CD21EE
:103BF0002046FFF732F80646C9212046FFF72DF888
:103C00000746C8212046FFF728F8814606212046AE
:103C1000FFF723F8824607212046FFF71EF84AEAFD
:103C2000002504212046FFF718F88246052120468A
:103C3000FFF713F84AEA00284B462A4641461AA0E5
:103C4000CDE9007606F088F824A006F085F8012179
:103C50002046FFF70FF8054600212046FFF70AF837
:103C600006462A46314624A006F076F8284804F095
:103C70000AFBBDE8FC87000054782020203A20454C
:103C80005458535420204554584E4420204D41430D
:103C90004C434F4E31204D41434C434F4E32204D0B
:103CA0004150485355500A00202020202020203029
:103CB0007825303458203078253034582030782515
:103CC00030325820202020203078253032582020D3
:103CD0002020203078253032580A000050485920E2
:103CE00020203A205048434F4E31205048535441F1
:103CF00054310D0A00000000202020202020202028
:103D0000307825303458203078253034580D0A006A
:103D10009C070020EFF3108072B6704780F3108884
:103D20007047314A1368012B04D04FF00103136030
:103D30002E4A10602E4A11602E484FF080510160CB
:103D40007047EFF3108272B62748016891B14FF0C7
:103D5000000101602548016829B1EFF3098121E9DB
:103D6000F00F00680160224909680968B1E8F00FA6
:103D700081F3098882F310884EF0040E70471C49C5
:103D800008601A494FF00000086017494FF0010021
:103D9000086019484FF47F01D0F8002041EA020181
:103DA000016014484FF080510160144800680068B9
:103DB00080F3088862B6704700BF1EF0040F14BF7E
:103DC000EFF30880EFF3098020E9F00F40F804EDED
:103DD00080F3088880F3098800B500F026F95DF8C3
:103DE00004EB4EF0040E7047440000203C0000201D
:103DF0004000002004ED00E020ED00E008ED00E0D0
:103E0000F0B504460D461646301D20F00700403838
:103E10000146002203E0C04F41F82270521C102AD4
:103E2000F9D30D624FF0000CC1F824C0C1F828C0CE
:103E3000C1F82CC0C1F830C04B638C634FF0807C5C
:103E4000C1F83CC0F0BDB5490860704710B5B4A0DA
:103E500005F082FFB6480188B6A005F07DFFB448A2
:103E6000008810F0010F02D0B8A005F075FFB0482F
:103E7000008810F0020F02D0B7A005F06DFFAC482B
:103E8000008810F0040F02D0B6A005F065FFA84826
:103E9000008810F0080F02D0B4A005F05DFFA44820
:103EA000008810F4807F02D0B2A005F055FFA04832
:103EB000008810F4007F02D0B1A005F04DFF9BA058
:103EC00005F04AFF10BD10B5B0A005F045FF9848B9
:103ED000401E0178B0A005F03FFF9548401E0078D5
:103EE00010F0010F02D0B2A005F036FF9048401E3E
:103EF000007810F0020F02D0B0A005F02DFF8C4822
:103F0000401E007810F0040F02D0AFA005F024FF8F
:103F10008748401E007810F0080F02D0AEA005F0D0
:103F20001BFF8348401E007810F0100F02D0ADA098
:103F300005F012FF7E48401E007810F0800F06D07A
:103F40007B480E300168A9A005F006FF02E077A0CB
:103F500005F002FF10BD10B5A8A005F0FDFE7448E5
:103F6000801E0178AAA005F0F7FE7148801E007837
:103F700010F0010F02D0ACA005F0EEFE6C48801EE0
:103F8000007810F0020F02D0AAA005F0E5FE684804
:103F9000801E007810F0080F02D0A9A005F0DCFE0A
:103FA0006348801E007810F0100F02D0A7A005F023
:103FB000D3FE5F48801E007810F0800F06D05C486A
:103FC0000A300168A4A005F0C7FE02E057A005F082
:103FD000C3FE10BD10B55648801C006810F0020FDB
:103FE00002D0A1A005F0B8FE5148801C006810F076
:103FF000804F10D04E48401E007808B1FFF763FF95
:104000004B48801E007808B1FFF7A5FF484800889C
:1040100008B1FFF71BFF4648801C006810F0004FF6
:1040200002D097A005F098FE10BD70B505462C1D76
:104030003A48006838B12846384909688847064632
:1040400006B970BD00BF92A0E16B05F085FE94A09B
:10405000216A05F081FE96A0616A05F07DFE98A0B8
:10406000A16A05F079FE9AA0E16A05F075FE9CA0B0
:10407000216805F071FE9EA0616805F06DFEA0A0AC
:10408000A16805F069FEA2A0E16805F065FEA4A0A4
:10409000216905F061FEA6A0616905F05DFEA8A09A
:1040A000A16905F059FEAAA0E16905F055FEACA092
:1040B000216B05F051FEAEA0616B05F04DFEB0A086
:1040C000A16B05F049FE287810F0040F09D007F025
:1040D0007FF806463146AEA005F03EFE07F0D6FD5D
:1040E00002E0B3A005F038FEFFF774FF00BFFEE763
:1040F00008B5B6A005F030FE002000904FF4B07374
:10410000B64AB7A1B7A005F027FE00BF9DF8000092
:104110000028FBD008BD0000EFBEADDE3800002057
:104120007573616765206661756C743A0A000000FA
:104130002AED00E05343425F434653525F554653D6
:10414000523A30782530325820000000554E444510
:1041500046494E5354522000494E565354415445FB
:1041600020000000494E5650432000004E4F43505F
:1041700020000000554E414C49474E454420000068
:1041800044495642595A45524F20000062757320E7
:104190006661756C743A0A005343425F434653525A
:1041A0005F424653523A30782530325820000000A2
:1041B0004942555345525220000000005052454399
:1041C0004953455252200000494D505245434953EE
:1041D0004552522000000000554E53544B45525258
:1041E0002000000053544B45525220005343422DAF
:1041F0003E424641523A253038580A006D656D20DE
:104200006D616E616765206661756C743A0A0000C5
:104210005343425F434653525F4D4653523A3078C0
:1042200025303258200000004941434356494F4C45
:10423000200000004441434356494F4C20000000F9
:104240004D554E53544B4552522000004D53544B44
:1042500045525220000000005343422D3E4D4D4137
:10426000523A253038580A006661696C65642076D8
:104270006563746F722066657463680A00000000ED
:104280006465627567206576656E740A00000000DB
:104290007073723A203078253038780A00000000B8
:1042A0007230303A203078253038780A000000002B
:1042B0007230313A203078253038780A000000001A
:1042C0007230323A203078253038780A0000000009
:1042D0007230333A203078253038780A00000000F8
:1042E0007230343A203078253038780A00000000E7
:1042F0007230353A203078253038780A00000000D6
:104300007230363A203078253038780A00000000C4
:104310007230373A203078253038780A00000000B3
:104320007230383A203078253038780A00000000A2
:104330007230393A203078253038780A0000000091
:104340007231303A203078253038780A0000000089
:104350007231313A203078253038780A0000000078
:104360007231323A203078253038780A0000000067
:10437000206C723A203078253038780A000000002E
:104380002070633A203078253038780A0000000029
:1043900068617264206661756C74206F6E20746849
:1043A000726561643A2025730D0A0D0A0000000051
:1043B00068617264206661756C74206F6E2068613C
:1043C0006E646C65720D0A0D0A00000073687574E6
:1043D000646F776E2E2E2E0A00000000600F020818
:1043E00030000000282573292061737365727420E2
:1043F0006661696C65642061742025733A256420C8
:104400000A00000010B50446B4F5E06F0BD0B4F517
:10441000C06F08D0B4F5A06F05D0B4F5806F02D09E
:10442000B4F5407F00D103E063215EA0FBF78AFF73
:10443000694820436949086010BD2DE9F0410446F0
:10444000002500270F26E07810B1E078012800D180
:1044500003E0752153A0FBF775FF6078102800DAA0
:1044600003E076214FA0FBF76DFFA078102800DA5B
:1044700003E077214BA0FBF765FFE07808B35748CE
:10448000006800F4E060C0F5E060050AC5F10407CB
:10449000EE40607800FA07F5A078304005432D0122
:1044A0004F4822788554207800F01F010120884071
:1044B000217849114FF0E02202EB8101C1F800019F
:1044C00009E0207800F01F0101208840454922784A
:1044D000521141F82200BDE8F08170B504460D4646
:1044E000B4F1005F02D0B4F1006F00D103E09F216E
:1044F0002CA0FBF727FF3C48854200D203E0A02117
:1045000028A0FBF71FFF394905EA01002043334982
:10451000091F086070BD70B504460D46102C03D00D
:10452000042C01D0022C00D103E0B2211DA0FBF726
:1045300009FF0DB1012D00D103E0B32119A0FBF754
:1045400001FF3DB12548001D006820432349091D96
:10455000086006E02148001D0068A0431F49091DAE
:10456000086070BD10B50446042C01D0601D00D158
:1045700003E0CA210BA0FBF7E5FE042C08D14FF0A5
:10458000E020006940F004004FF0E021086107E0FE
:104590004FF0E020006920F004004FF0E0210861B6
:1045A00010BD00002E2E5C74686972645F706172C9
:1045B000745C53544D3332463130785F53746450D9
:1045C00065726970685F4472697665725C73726364
:1045D0005C6D6973632E63000000FA050CED00E06A
:1045E00000E400E080E100E0FFFF0F0080FFFF1F1C
:1045F0000020A7490860091D0860091D0860091D01
:104600000860A448A24914310860704770B5044698
:104610000025207910B12079042800D103E06A2117
:104620009DA0FBF78FFE6079082805D060790C28E3
:1046300002D06079102800D103E06B2196A0FBF72F
:1046400081FE2068000D000502D1206800B103E062
:104650006C2191A0FBF776FEA07910B1A07901281A
:1046600000D103E06D218CA0FBF76CFE884DA07992
:1046700090B3284600682168884329460860081DD1
:10468000006821688843291D08602079054428684E
:104690002168084328607E48083000682168884304
:1046A0007B4908310860081D006821688843784903
:1046B0000C310860607910280FD1081F006821684C
:1046C0000843734908310860081D006821680843E1
:1046D0006F490C3108600EE007E06D4D60790544CC
:1046E000286821680843286005E020790544286887
:1046F00021688843286070BD0021016001710C2190
:10470000417100218171704710B50446200D0005EC
:1047100001D104B103E0AE215FA0FBF713FE5C48BA
:104720001030006820435A491031086010BD70B540
:1047300004460025012C31D0022C2FD0042C2DD082
:10474000082C2BD0102C29D0202C27D0402C25D061
:10475000802C23D0B4F5807F20D0B4F5007F1DD00D
:10476000B4F5806F1AD0B4F5006F17D0B4F5805F40
:1047700014D0B4F5005F11D0B4F5804F0ED0B4F56D
:10478000004F0BD0B4F5803F08D0B4F5003F05D002
:10479000B4F5802F02D0B4F5002F00D103E0BE2184
:1047A0003DA0FBF7CFFD3A4814300068204201D00D
:1047B000012500E00025284670BD10B50446200DF7
:1047C000000501D104B103E0D42133A0FBF7BAFD09
:1047D0002F481430046010BD70B504460025002633
:1047E000012C31D0022C2FD0042C2DD0082C2BD012
:1047F000102C29D0202C27D0402C25D0802C23D041
:10480000B4F5807F20D0B4F5007F1DD0B4F5806F63
:104810001AD0B4F5006F17D0B4F5805F14D0B4F59A
:10482000005F11D0B4F5804F0ED0B4F5004F0BD01F
:10483000B4F5803F08D0B4F5003F05D0B4F5802F23
:1048400002D0B4F5002F00D103E0E52112A0FBF760
:1048500079FD0F48006800EA04060D48143000682E
:10486000204202D00EB1012500E00025284670BD8F
:1048700010B50446200D000501D104B103E0FC2170
:1048800005A0FBF75FFD02481430046010BD000076
:1048900000040140FFFF0F002E2E5C7468697264F3
:1048A0005F706172745C53544D3332463130785FBF
:1048B0005374645065726970685F4472697665729A
:1048C0005C7372635C73746D3332663130785F652C
:1048D0007874692E6300000010B50446FC488442D9
:1048E00011D0FC4884420ED0FB4884420BD0FB48D8
:1048F000844208D0FA48844205D0FA48844202D063
:10490000F948844200D103E06F21F8A0FBF71AFDBB
:10491000EF48844208D10121042001F068F8002109
:10492000042001F064F846E0EA48844208D10121FD
:10493000082001F05CF80021082001F058F83AE066
:10494000E548844208D10121102001F050F80021EF
:10495000102001F04CF82EE0E048844208D10121FB
:10496000202001F044F80021202001F040F822E04E
:10497000DB48844208D10121402001F038F80021B1
:10498000402001F034F816E0D648844208D10121D5
:10499000802001F02CF80021802001F028F80AE0A6
:1049A000D148844207D10121801501F020F800216F
:1049B000A01501F01CF810BD10B50121084601F04A
:1049C00016F80021012001F012F810BD2DE9F05F6A
:1049D00005460C464FF00009CA4600260027B0469F
:1049E000B346BB48854211D0BA4885420ED0BA487A
:1049F00085420BD0B948854208D0B948854205D0D8
:104A0000B848854202D0B848854200D103E0B221BF
:104A1000B6A0FBF797FCE078A0B1E078042811D0AD
:104A2000E07828280ED0E07848280BD0E0781428C9
:104A300008D0E078102805D0E0781C2802D0E07873
:104A4000182800D103E0B321A8A0FBF77BFC0020CD
:104A500010B9208800B103E0B421A4A0FBF772FCD8
:104A6000E07800F00F09E07810F0100F10D0A07877
:104A7000012805D0A078022802D0A078032800D110
:104A800003E0BB2199A0FBF75DFCA07840EA09098F
:104A9000207838B3D5F8008000261FE0012000FA06
:104AA00006F7208800EA070ABA4516D1B7000F209A
:104AB00000FA07FB28EA0B0809FA07F040EA0808A1
:104AC000E078282803D10120B040686105E0E07853
:104AD000482802D10120B0402861761C082EDDD381
:104AE000C5F800802088FF282BDDD5F8048000263B
:104AF00023E006F10800012101FA00F7208800EA0E
:104B0000070ABA4518D1B7000F2000FA07FB28EAB8
:104B10000B0809FA07F040EA0808E078282803D1D2
:104B200006F1080081406961E078482804D106F167
:104B30000800012181402961761C082ED9D3C5F8CF
:104B40000480BDE8F09F4FF6FF7101800221817063
:104B50000421C170704770B505460C4600265C48BC
:104B6000854211D05B4885420ED05B4885420BD010
:104B70005A48854208D05A48854205D0594885424E
:104B800002D05948854200D104E04FF48F7157A0FC
:104B9000FBF7D8FB012C25D0022C23D0042C21D0EC
:104BA000082C1FD0102C1DD0202C1BD0402C19D02D
:104BB000802C17D0B4F5807F14D0B4F5007F11D0CD
:104BC000B4F5806F0ED0B4F5006F0BD0B4F5805FF4
:104BD00008D0B4F5005F05D0B4F5804F02D0B4F52D
:104BE000004F00D104E040F21F1140A0FBF7AAFBE8
:104BF000A868204201D0012600E00026304670BDA2
:104C000010B504463248844211D0324884420ED056
:104C1000314884420BD03148844208D03048844225
:104C200005D03048844202D02F48844200D104E0AD
:104C30004FF49A712DA0FBF785FBA06880B210BDE0
:104C400070B505460C4600262148854211D0214802
:104C500085420ED0204885420BD02048854208D09E
:104C60001F48854205D01F48854202D01E48854214
:104C700000D104E04FF4A2711CA0FBF763FB012CF0
:104C800025D0022C23D0042C21D0082C1FD0102C8E
:104C90001DD0202C1BD0402C19D0802C17D0B4F55F
:104CA000807F14D0B4F5007F11D0B4F5806F0ED0A2
:104CB000B4F5006F0BD0B4F5805F08D0B4F5005F99
:104CC00005D0B4F5804F02D0B4F5004F2ED133E0BB
:104CD00000080140000C0140001001400014014098
:104CE00000180140001C0140002001402E2E5C7481
:104CF000686972645F706172745C53544D333246FC
:104D00003130785F5374645065726970685F4472C3
:104D1000697665725C7372635C73746D333266318D
:104D200030785F6770696F2E6300000040F24511B4
:104D3000AFF24800FBF706FBE868204201D00126ED
:104D400000E00026304670BD10B50446FE4884429F
:104D500011D0FE4884420ED0FD4884420BD0FD485D
:104D6000844208D0FC48844205D0FC48844202D0EA
:104D7000FB48844200D105E04FF4AD71AFF29400DE
:104D8000FBF7E0FAE06880B210BD70B504460D464E
:104D9000ED48844211D0ED4884420ED0EC48844264
:104DA0000BD0EC48844208D0EB48844205D0EB4855
:104DB000844202D0EA48844200D105E040F2691101
:104DC000AFF2D800FBF7BEFA002008B905B105E044
:104DD0004FF4B571AFF2EC00FBF7B4FA256170BD8A
:104DE00070B504460D46D848844211D0D748844255
:104DF0000ED0D74884420BD0D648844208D0D6483B
:104E0000844205D0D548844202D0D548844200D19E
:104E100005E040F27911AFF22C10FBF793FA002075
:104E200008B905B105E04FF4BD71AFF24010FBF7D2
:104E300089FA656170BD70B505460C461646C248D4
:104E4000854211D0C14885420ED0C14885420BD061
:104E5000C048854208D0C048854205D0BF48854239
:104E600002D0BF48854200D105E040F28D11AFF27B
:104E70008410FBF767FA012C25D0022C23D0042CD8
:104E800021D0082C1FD0102C1DD0202C1BD0402C42
:104E900019D0802C17D0B4F5807F14D0B4F5007FE2
:104EA00011D0B4F5806F0ED0B4F5006F0BD0B4F50F
:104EB000805F08D0B4F5005F05D0B4F5804F02D014
:104EC000B4F5004F00D105E04FF4C771AFF2E41024
:104ED000FBF738FA0EB1012E00D105E040F28F1138
:104EE000AFF2F810FBF72EFA0EB12C6100E06C6106
:104EF00070BD70B504460D469348844211D0934866
:104F000084420ED0924884420BD09248844208D00A
:104F10009148844205D09148844202D0904884420E
:104F200000D105E04FF4D271AFF24020FBF70AFA4E
:104F3000E56070BD70B504460D464FF4803682487A
:104F4000844211D0814884420ED0814884420BD0E3
:104F50008048844208D08048844205D07F488442FB
:104F600002D07F48844200D105E040F2B511AFF293
:104F70008420FBF7E7F9002008B905B105E04FF4FC
:104F8000DB71AFF29820FBF7DDF92E43A661A56136
:104F9000A661A669A66970BD70B505460C460026D7
:104FA0003DB1012D05D0022D03D0032D01D0042DDC
:104FB00000D105E04FF4E971AFF2D020FBF7C2F960
:104FC000ECB1012C1BD0022C19D0032C17D0042CCF
:104FD00015D0052C13D0062C11D0072C0FD0082C7F
:104FE0000DD0092C0BD00A2C09D00B2C07D00C2C7F
:104FF00005D00D2C03D00E2C01D00F2C00D105E0D4
:1050000040F2D311AFF21C30FBF79CF9554806680B
:105010004FF68070064046EA051626435148066062
:1050200070BD10B504460CB1012C00D105E04FF461
:10503000F371AFF24830FBF785F94B48C46110BDFE
:105040002DE9F04704460E460027B8460025A9463C
:10505000012C77D0022C75D0042C73D0082C71D081
:10506000A4F5A01010386DD020386BD0A4F5B01086
:10507000403867D0803865D03C48844262D03C4894
:1050800084425FD03B4884425CD03B48844259D044
:105090003A48844256D0B4F5805F53D0B4F5EA1F45
:1050A00050D0B4F5EB1F4DD0B4F5004F4AD0344882
:1050B000844247D0A4F50010801E7CD0801E7AD098
:1050C000001F78D0083876D0B4F1201F73D0303864
:1050D00071D02C4884426ED02B4884426BD02B4830
:1050E000844268D02A48844265D02A48844262D0EB
:1050F000B4F5011F5FD0284884425CD0401C844234
:1051000059D0801C844256D0001D844253D022487E
:105110000F3084424FD020481F3084424BD01E486D
:105120003F30844247D01C487F30844243D01A48E5
:10513000FF3084423FD0194884423CD01848844212
:1051400039D02FE037E0000000080140000C01409A
:10515000001001400014014000180140001C0140F3
:105160000020014000000140000020420001180022
:10517000000218000003180000081A00000C1A00B2
:105180000100200000013000000230000004300067
:10519000001120000020200001000080000200809B
:1051A000000400806348844205D06348844202D0F2
:1051B0006248844200D105E040F22A21AFF2D44097
:1051C000FBF7C0F80EB1012E00D105E040F22B2113
:1051D000AFF2E840FBF7B6F804F00040B0F1004F42
:1051E00002D15748C56901E055484568C4F30349F1
:1051F000A7B204F44010B0F5401F08D125F0706547
:105200004F48406820F070604D49486013E004F456
:105210008010B0F5801F07D1032000FA09F825EAB5
:10522000080545F0706506E0600D000107FA00F022
:10523000854345F0706526B1600D010107FA01F064
:10524000054304F00040B0F1004F02D13C48C56175
:1052500001E03B484560BDE8F08770B505460C4667
:1052600000265DB1012D09D0022D07D0032D05D0F8
:10527000042D03D0052D01D0062D00D105E040F20C
:105280006521AFF29850FBF75DF8ECB1012C1BD013
:10529000022C19D0032C17D0042C15D0052C13D0B8
:1052A000062C11D0072C0FD0082C0DD0092C0BD0B8
:1052B0000A2C09D00B2C07D00C2C05D00D2C03D0B8
:1052C0000E2C01D00F2C00D105E040F26621AFF288
:1052D000E450FBF737F8A007010F0F2000FA01F6A2
:1052E00017480830A11050F82100B0431449083184
:1052F000A21041F822000846A11050F82100A10791
:10530000090F05FA01F108430D490831A21041F8CF
:10531000220070BD10B504460CB1012C00D105E08F
:105320004FF41E71AFF23C60FBF70CF805480460C7
:1053300010BD0000000800800010008000200080E8
:1053400000000140DC002042FE48006840F00100FF
:10535000FC49086008464068FB490840F949486034
:1053600008460068F9490840F649086008460068A0
:1053700020F4802008600846406820F4FE00486061
:105380004FF41F008860704710B504462CB1B4F587
:10539000803F02D0B4F5802F00D104E040F211111B
:1053A000EBA0FAF7CFFFE748006820F48030E5492A
:1053B00008600846006820F480200860B4F5803F4B
:1053C00003D0B4F5802F0ED106E0DE48006840F42B
:1053D0008030DC49086007E0DA48006840F4A0202B
:1053E000D849086000E000BF00BF10BD2DE9F041C2
:1053F0000446002500260027212C13D0312C11D083
:10540000392C0FD0412C0DD0612C0BD07A2C09D027
:105410007B2C07D07C2C05D07D2C03D07E2C01D09A
:105420007F2C00D104E040F23451C9A0FAF78AFF82
:105430006511012D02D1C348066806E0022D02D194
:10544000C048066A01E0BF48466A04F01F05012013
:10545000A840304201D0012700E000273846BDE8CF
:10546000F08138B5002000900024002500BF3120D5
:10547000FFF7BCFF05460098401C00900098B0F56F
:10548000A06F01D0002DF2D03120FFF7AFFF08B19F
:10549000012400E00024204638BD70B504460025F4
:1054A0001F2C00DC04E04FF4A971A9A0FAF74AFF11
:1054B000A448056825F0F80545EAC405056070BDF7
:1054C00010B504460CB1012C00D104E040F2651186
:1054D0009FA0FAF737FFAE48046010BD70B50546CF
:1054E0000C4600262DB1B5F5803F02D0B5F5403F02
:1054F00000D104E040F27F1195A0FAF723FF4CB3EE
:10550000B4F5802F26D0B4F5002F23D0B4F5402F6A
:1055100020D0B4F5801F1DD0B4F5A01F1AD0B4F56B
:10552000C01F17D0B4F5E01F14D0B4F5001F11D080
:10553000B4F5101F0ED0B4F5201F0BD0B4F5301FFA
:1055400008D0B4F5401F05D0B4F5501F02D0B4F513
:10555000601F00D104E04FF4C0717DA0FAF7F2FEA5
:105560007848466826F47C1645EA040006437548E8
:10557000466070BD10B504460CB1012C00D104E0AA
:105580004FF4CA7172A0FAF7DDFE8148046610BDBF
:1055900070B5044600251CB1012C01D0022C00D1AD
:1055A00004E04FF40E716AA0FAF7CCFE6548456836
:1055B00025F003052543456070BD6248406800F052
:1055C0000C00704770B5044600257CB1802C0DD0CE
:1055D000902C0BD0A02C09D0B02C07D0C02C05D01B
:1055E000D02C03D0E02C01D0F02C00D104E04FF4FB
:1055F000197157A0FAF7A6FE5248456825F0F00544
:105600002543456070BD70B5044600255CB1B4F516
:10561000806F08D0B4F5A06F05D0B4F5C06F02D08C
:10562000B4F5E06F00D104E040F27E2148A0FAF723
:1056300089FE4448456825F4E0652543456070BD12
:1056400070B5044600255CB1B4F5806F08D0B4F5A0
:10565000A06F05D0B4F5C06F02D0B4F5E06F00D1F3
:1056600004E04FF426713AA0FAF76CFE354845681D
:1056700025F4605545EAC405456070BD70B5044623
:105680000D4614F0E00F01D104B104E040F2BF2157
:105690002FA0FAF757FE0DB1012D00D104E04FF411
:1056A00030712BA0FAF74EFE2DB12648407A2043E8
:1056B0002449487204E02348407AA04321494872B3
:1056C00070BD10B504460CB1012C00D104E040F2CD
:1056D000DB211FA0FAF736FE2E48046010BD70B51E
:1056E0000446002544B1B4F5804F05D0B4F5004F11
:1056F00002D0B4F5404F00D104E040F2023114A0D2
:10570000FAF720FE0F48456825F4404525434560DB
:1057100070BD10B504461CB1012C01D0042C00D181
:1057200004E04FF450710AA0FAF70CFE00201A4969
:105730000870044981F82000012C2FD0042C35D1A9
:1057400030E00000001002400000FFF8FFFFF6FE0E
:105750002E2E5C74686972645F706172745C53545D
:105760004D3332463130785F5374645065726970DE
:10577000685F4472697665725C7372635C73746DA2
:105780003332663130785F7263632E63000000004D
:1057900000004242D8004242201002400120F44959
:1057A000087004E00520F249087000E000BF00BF67
:1057B00010BD10B504460CB1012C00D105E040F23B
:1057C0006131AFF27400FAF7BDFDEA48046010BD24
:1057D00010B50446B4F5807F05D0B4F5007F02D043
:1057E000B4F5407F00D105E040F27231AFF2A00085
:1057F000FAF7A8FDDE482038006A2043DC4920394A
:10580000086210BD10B504460CB1012C00D105E0B2
:105810004FF46071AFF2C800FAF794FDD5484438F0
:10582000046010BD30B50021002200240023D04DBB
:10583000203D6D6805F00C0121B1042905D008292F
:1058400026D105E0CC4D056025E0CB4D056022E07A
:10585000C74D203D6D6805F47012C54D203D6D6843
:1058600005F48034022505EB92421CB9C34D554323
:1058700005600CE0BE4D203D6D6815F4003F03D07F
:10588000BE4D5543056002E0BB4D5543056002E047
:10589000B94D056000BF00BFB54D203D6D6805F0F6
:1058A000F0010909B64D6B5C0568DD404560B04DFF
:1058B000203D6D6805F4E061090AB14D6B5C4568F7
:1058C000DD408560AA4D203D6D6805F46051C90A30
:1058D000AB4D6B5C4568DD40C560A54D203D6D68F6
:1058E00005F44041890BA74D6B5CC568B5FBF3F52A
:1058F000056130BD70B504460D4640F2575034EA9C
:10590000000001D104B105E040F22B41AFF2C0101C
:10591000FAF718FD0DB1012D00D105E040F22C4140
:10592000AFF2D410FAF70EFD3DB19148203840692E
:1059300020438F492039486106E08D48203840696E
:10594000A0438B492039486170BD70B504460D46AF
:105950008D48044201D104B105E040F24A41AFF262
:105960001020FAF7EFFC0DB1012D00D105E040F257
:105970004B41AFF22420FAF7E5FC3DB17C482038DA
:10598000806920437A492039886106E078482038C8
:105990008069A04376492039886170BD70B504469E
:1059A0000D467A48044201D104B105E040F2694154
:1059B000AFF26420FAF7C6FC0DB1012D00D105E06D
:1059C00040F26A41AFF27820FAF7BCFC3DB168487A
:1059D0002038C069204366492039C86106E0644820
:1059E0002038C069A04362492039C86170BD70B5D4
:1059F00004460D466448044201D104B105E040F27A
:105A0000A441AFF2B420FAF79DFC0DB1012D00D1F5
:105A100005E040F2A541AFF2C820FAF793FC3DB192
:105A200053482038C068204351492039C86006E0F7
:105A30004F482038C068A0434D492039C86070BD28
:105A400070B504460D465148044201D104B105E049
:105A500040F2C341AFF20830FAF774FC0DB1012DEA
:105A600000D105E040F2C441AFF21C30FAF76AFC05
:105A70003DB13F482038006920433D492039086145
:105A800006E03B4820380069A043394920390861C5
:105A900070BD10B504460CB1012C00D105E04FF4E7
:105AA0009B61AFF25430FAF74DFC32484038046045
:105AB00010BD10B504460CB1012C00D105E040F238
:105AC000E541AFF27430FAF73DFC3148C46410BDD3
:105AD00010B504463CB1052C05D0042C03D0062C8F
