:020000040800F2
:10000000501B0020C5460008E9040008371C000802
:10001000EB040008EF040008F304000800000000EF
:10002000000000000000000000000000F7040008CD
:10003000F904000800000000BF1B00087F0300084F
:10004000DF460008DF460008DF460008DF460008FC
:10005000DF460008DF460008DF460008DF460008EC
:10006000DF460008DF460008DF460008DF460008DC
:10007000DF460008DF460008DF460008DF460008CC
:10008000DF460008DF460008DF460008DF460008BC
:10009000DF460008DF460008DF460008DF460008AC
:1000A000DF460008DF460008DF460008DF4600089C
:1000B000DF460008DF460008DF460008DF4600088C
:1000C000DF460008DF460008DF460008DF4600087C
:1000D000DF460008DB0600082F070008830700083A
:1000E000DF460008DF460008DF460008DF4600085C
:1000F000DF460008DF460008DF460008DF4600084C
:10010000DF460008DF460008DF460008DF4600083B
:10011000DF460008DF460008DF460008DF4600082B
:10012000DF460008DF460008DF460008DF4600081B
:1001300000F002F800F063F80AA090E8000C824496
:100140008344AAF10107DA4501D100F058F8AFF273
:10015000090EBAE80F0013F0010F18BFFB1A43F0A5
:100160000103184750F0000070F000000A444FF0FF
:10017000000C10F8013B13F0070408BF10F8014B06
:100180001D1108BF10F8015B641E05D010F8016B4B
:10019000641E01F8016BF9D113F0080F1EBF10F8AF
:1001A000014BAD1C0C1B09D16D1E58BF01F801CBD2
:1001B000FAD505E014F8016B01F8016B6D1EF9D555
:1001C0009142D6D37047000000230024002500266A
:1001D000103A28BF78C1FBD8520728BF30C148BFAA
:1001E0000B6070471FB50EF009F8040000200021D5
:1001F0000EF024F8401C60601FBD10B510BD0DF05E
:10020000D8FF1146FFF7EEFF00F07FF80EF008F878
:1002100003B4FFF7F2FF03BC0EF008F8002400F06F
:10022000F3F80CE0641C012000F008F9322008F01B
:10023000BCFA012000F015F9322008F0B6FAF1E717
:1002400010B504460DF068FD15A00DF05BF810BD6B
:100250007FB5052014214FF40072134BCDE9003215
:10026000CDE902100023114A11A1124808F07BF8D1
:10027000054615B90F4808F0E0F8142008210B02D4
:100280000022CDE90010AFF247010BA008F03CF9C5
:10029000044614B1204608F0D0F8002004B070BD28
:1002A0007561727432000000D00100201D02000848
:1002B0006C656400D0030020696E69740000000062
:1002C00004460D4614A006F049FE21461CA006F087
:1002D00045FE29461FA006F041FE00BFFEE710B50F
:1002E00000F055F806F06AFE1F49204806F0CFFFDF
:1002F00007F019FE08F045FD08F04FFDFFF7A8FFD5
:1003000004F08DFC07F02BFE10BD10B501F040FC91
:10031000FFF7E5FF002010BD0A0D2057726F6E67D2
:1003200020706172616D657465722076616C7565AF
:10033000206465746563746564206F6E0D0A000047
:100340002020202020202066696C65202025730D48
:100350000A000000202020202020206C696E6520EB
:100360002025640D0A00000000000120501B002021
:1003700010B500214FF0006001F0EDFF10BD10B589
:1003800006F018FA04F0CDF906F023FA10BD70B5A6
:10039000FFF7EEFF174800686422B0FBF2F1B1F1FD
:1003A000807F00D31DE021F07F40401E4FF0E0220F
:1003B000506150170F22002807DA13071D0E0E4B4D
:1003C00000F00F04241F1D5503E013071C0E0B4BF8
:1003D0001C5400BF00204FF0E02290610720106104
:1003E00000BF00F065FA06A006F02DFE0DF08AFCB5
:1003F00070BD00004000002018ED00E000E400E0C7
:10040000756172743200000008B50121202003F0EC
:1004100066F810208DF8030003208DF802000420F8
:10042000ADF8000069462E4802F09AF81020ADF8A9
:10043000000069462A4802F093F808BD10B504464A
:1004400014B1012C0AD104E00421254802F067FA16
:1004500005E01021224802F062FA00E000BF00BF70
:1004600010BD10B5044614B1012C0AD104E00421DA
:100470001B4802F07FFA05E01021194802F07AFAD1
:1004800000E000BF00BF10BD70B505460C46154822
:10049000007820B9FFF7B8FF0120124908706DB944
:1004A00014B1012C08D103E00020FFF7DAFF04E0CB
:1004B0000020FFF7C3FF00E000BF00BF012D0DD1FA
:1004C00014B1012C08D103E00120FFF7CAFF04E0BA
:1004D0000120FFF7B3FF00E000BF00BF70BD0000C8
:1004E0000014014000000020704700BFFEE700BF7D
:1004F000FEE700BFFEE770477047000070B586B0AA
:1005000005460C466DB9002001903223F84AF9A146
:10051000FDA006F023FD00BF9DF804000028FBD0DD
:1005200000BF6CB9002001903323F14AFEA1F6A070
:1005300006F014FD00BF9DF804000028FBD000BFAA
:10054000EE6B20680290207900F00F00082803D19C
:100550000020ADF80C0008E0207900F00F00092819
:1005600003D14FF48050ADF80C002079C0F3011096
:1005700018B90020ADF80E0007E02079C0F3011093
:10058000012802D14003ADF80E002079C0F381109C
:1005900018B90020ADF8100011E02079C0F38110E7
:1005A000012804D14FF4C060ADF8100007E02079B5
:1005B000C0F38110022802D14002ADF810000020E3
:1005C000ADF814000C20ADF8120002A9306803F059
:1005D00002F90121306803F042FA002006B070BD34
:1005E000F8B505460E4617466DB9002000905B230E
:1005F000D14AC0A1C4A006F0B1FC00BF9DF8000024
:100600000028FBD000BFEC6B102E13D0112E26D18A
:1006100094F9040000F01F0201219140C74A4309E8
:1006200042F8231000BF002240F22551206803F059
:1006300043FA14E094F9040000F01F0201219140F4
:1006400042094FF0E02303EB8202C2F8001100BF21
:10065000012240F22551206803F02EFA00BF00BFAE
:100660000020F8BDF8B504460E466CB90020009095
:100670007723B34A9FA1A4A006F070FC00BF9DF8A9
:1006800000000028FBD000BFE56B2868868000BF13
:100690002868008810F0400FFAD00120F8BDF8B5A6
:1006A00004466CB9002000908523A64A91A196A02B
:1006B00006F054FC00BF9DF800000028FBD000BFEE
:1006C000E56B4FF0FF362868008810F0200F02D04D
:1006D00028688088C6B23046F8BD10B59A4C06F03E
:1006E00069F840F22551206803F01BFE40B101215A
:1006F000964800F053FD40F22551206803F09BFE20
:1007000040F22661206803F00CFE20B140F2266121
:10071000206803F090FE0821206803F073FD012893
:1007200002D18A48FFF7BBFF06F053F810BD10B5A1
:10073000874C06F03FF840F22551206803F0F1FDA8
:1007400040B10121834800F029FD40F22551206885
:1007500003F071FE40F22661206803F0E2FD20B153
:1007600040F22661206803F066FE0821206803F04D
:1007700049FD012802D17748FFF791FF06F029F8DB
:1007800010BD10B5744C06F015F840F225512068E4
:1007900003F0C7FD40B10121704800F0FFFC40F2BA
:1007A0002551206803F047FE40F22661206803F0DF
:1007B000B8FD20B140F22661206803F03CFE08211C
:1007C000206803F01FFD012802D16448FFF767FF8E
:1007D00005F0FFFF10BD10B50121042002F07FFEDF
:1007E0000121880302F07BFE0121042002F077FE44
:1007F0000121480402F09CFE0121082002F06FFE56
:100800000121880402F094FE10BD08B502208DF885
:10081000020004208DF803008020ADF80000694636
:100820004F4801F09DFE18208DF803004020ADF8E0
:10083000000069464A4801F093FE04208DF8030049
:100840000820ADF800006946464801F089FE1820EE
:100850008DF803000420ADF800006946414801F01E
:100860007FFE04208DF803004002ADF800006946C9
:100870003B4801F075FE18208DF803004FF48060AE
:10088000ADF800006946364801F06AFE08BD38B58B
:10089000044620798DF8000000208DF801008DF8C5
:1008A000020001208DF80300684601F004FD38BD08
:1008B0001CB52D4903C9CDE90001FFF78CFFFFF7F7
:1008C000A4FF214C4FF4E130009028481F490864F0
:1008D0000846DDE90012C0E911122046FFF7D7FFF4
:1008E000234640F2031222A1184800F026FC43E000
:1008F000A0E2000873657269616C20213D205254AA
:100900005F4E554C4C0000002825732920617373FD
:10091000657274206661696C65642061742025735A
:100920003A2564200A00000063666720213D2052BA
:10093000545F4E554C4C0000B0E2000880E100E0EE
:10094000BEE20008C9E200080400002050040020B4
:100950000C000020A404002014000020F804002053
:10096000000C014000080140D4E200088CE20008BD
:100970007561727431000000164C4FF4E130009044
:100980001548164908640846DDE90012C0E911124D
:100990002046FFF77CFF234640F2031210A10F48C8
:1009A00000F0CBFB104C4FF4E13000900A480F49A7
:1009B00008640846DDE90012C0E911122046FFF77D
:1009C00066FF234640F2031209A1084800F0B5FB78
:1009D0001CBD00000C0000208CE20008A4040020D4
:1009E000756172743200000014000020F8040020C9
:1009F00075617274330000002DE9F84F06460F460A
:100A000015466EB9002000905D23F44AF4A1F9A0C8
:100A100006F0A4FA00BF9DF800000028FBD000BF3C
:100A2000A846F46C6CB9002000906123EB4AF9A150
:100A3000F0A006F093FA00BF9DF800000028FBD05C
:100A400000BF22E001F0A4F88246E088A188884235
:100A50000FD0E188206810F80190E088401CE08009
:100A6000E188B06CC0F38F20814206DB0020E0807B
:100A700003E0504601F090F809E0504601F08CF890
:100A800087F800907F1C6D1E00BF002DDAD100BFDB
:100A9000A8EB0500BDE8F88F2DE9F84305460E46A2
:100AA00014466DB9002000908723DF4ACCA1D1A065
:100AB00006F054FA00BF9DF800000028FBD000BFEC
:100AC000A0462F6D6FB9002000908B23D64AD7A186
:100AD000C8A006F043FA00BF9DF800000028FBD034
:100AE00000BF0EE03178286C826828469047401C91
:100AF00004D1411E384600F0E3FC02E0761C641E7F
:100B000000BF002CEED1A8EB0400BDE8F8832DE96E
:100B1000F84304460E4617464FF0000804B16EB97C
:100B200000200090A423C54AC5A1B2A006F016FA81
:100B300000BF9DF800000028FBD000BFE56C6DB938
:100B400000200090A623BD4AC8A1AAA006F006FA7C
:100B500000BF9DF800000028FBD000BF01F018F88E
:100B60008146286801280AD001202860206C0123D2
:100B70003A463146D0F810C02046E04701E06FF019
:100B80000608484601F008F8B8F1000F02D13846CF
:100B9000BDE8F883404605F041FE0020F8E7F8B5CF
:100BA000054600266DB900200090E223B44AB5A1A5
:100BB00090A006F0D3F900BF9DF800000028FBD0FC
:100BC00000BF2C460020E0642065206C006830B136
:100BD000206C04F1440102682046904706463046E6
:100BE000F8BDF8B504460E466CB900200090F42319
:100BF000A84AA4A17FA006F0B1F900BF9DF80000AB
:100C00000028FBD000BF254616F4007F06D0E08AFE
:100C100010F4007F02D16FF00700F8BD16F4006FEA
:100C200006D0E08A10F4006F02D16FF00700F4E7FD
:100C300016F4807F06D0E08A10F4807F02D16FF036
:100C40000700EAE716F4806F06D0E08A10F4806FA0
:100C500002D16FF00700E0E7F0B22083E86C0028D3
:100C600053D116F4007F1BD0042006F07FFB07460B
:100C700077B9002000904FF48673864A7BA15DA06F
:100C800006F06CF900BF9DF800000028FBD000BF03
:100C900000203860EF64208B40F40070208334E043
:100CA00016F4807F2FD0A96CC1F38F2101F10800C9
:100CB00006F05CFB074677B9002000904FF48C7378
:100CC000744A54A14BA006F049F900BF9DF80000FA
:100CD0000028FBD000BF07F1080038604022002147
:100CE000386805F0BCFD0020B880F880EF64208BE8
:100CF00040F480702083286C4FF480721021436888
:100D00002846984701E00020E864286D00284BD170
:100D100016F4006F1FD0282006F028FB074677B98D
:100D2000002000904FF498735A4A5BA131A006F05E
:100D300015F900BF9DF800000028FBD000BF00237C
:100D400004220821381D00F0C8FC2F65208B40F4D8
:100D50000060208328E016F4806F23D00C2006F07A
:100D600005FB074677B9002000904FF49E73494A6F
:100D70004EA120A006F0F2F800BF9DF80000002868
:100D8000FBD000BF384600F07DFB2F65208B40F480
:100D900080602083286C4FF48062102143682846CD
:100DA000984701E000202865002036E7F8B50446A2
:100DB00074B9002000904FF4A973414A31A10DA0ED
:100DC00006F0CCF800BF9DF800000028FBD000BF63
:100DD0002546A07E012876DD0020F8BDFCE2000853
:100DE00073657269616C20213D2052545F4E554CF1
:100DF0004C000000282573292061737365727420EC
:100E00006661696C65642061742025733A256420ED
:100E10000A00000072785F6669666F20213D2052EB
:100E2000545F4E554C4C00000BE3000874782021B1
:100E30003D2052545F4E554C4C0000001AE3000810
:100E40002873657269616C20213D2052545F4E55B4
:100E50004C4C2920262620286461746120213D20E5
:100E600052545F4E554C4C290000000072785F646C
:100E70006D6120213D2052545F4E554C4C000000C6
:100E800029E3000864657620213D2052545F4E55C9
:100E90004C4C000038E3000874785F646D612021D9
:100EA0003D2052545F4E554C4C00000074785F66F4
:100EB00069666F20213D2052545F4E554C4C000016
:100EC00047E30008FFE7208B10F4807F23D0EE6C0F
:100ED00086B90020009040F25D13FE4AAFF2CC01CB
:100EE000AFF2F00006F03AF800BF9DF800000028CD
:100EF000FBD000BF304606F00DFC0020E864208BDC
:100F000020F480702083286C4FF4806211214368A4
:100F10002846984720E0208B10F4007F1CD02E6DCF
:100F200086B9002000904FF4B573EA4AAFF2C401CD
:100F3000AFF2401006F012F800BF9DF80000002844
:100F4000FBD000BF304606F0E5FB0020E864208BB4
:100F500020F40070208300BF208B10F4806F23D01A
:100F6000EE6C86B9002000904FF4BB73D94AAFF203
:100F7000C401AFF2801005F0F1FF00BF9DF8000042
:100F80000028FBD000BF304606F0C4FB00202865D7
:100F9000208B20F480602083286C4FF48062112124
:100FA00043682846984720E0208B10F4006F1CD03F
:100FB0002E6D86B90020009040F28313C54AAFF22F
:100FC0002811AFF2D01005F0C9FF00BF9DF8000056
:100FD0000028FBD000BF304606F09CFB00202865AF
:100FE000208B20F40060208300BF0020F8BD2DE995
:100FF000F8430446884617461D4684B900200090F1
:101000004FF4CA73B44AAFF28411AFF2182005F05E
:10101000A5FF00BF9DF800000028FBD000BF15B958
:101020000020BDE8F8832646208B10F4807F05D091
:101030002A4639463046FFF7DFFCF2E7208B10F4F2
:10104000007F05D02A4639463046FFF760FDE8E7C5
:101050002A463946304600F08BF9E2E72DE9F8439D
:101060000446884617461D4684B9002000904FF478
:10107000D6739A4AAFF2F411AFF2882005F06EFFF2
:1010800000BF9DF800000028FBD000BF15B900206C
:10109000BDE8F8832646208B10F4806F05D02A46E1
:1010A00039463046FFF7F8FCF2E7208B10F4006F6A
:1010B00005D02A463946304600F0B2F9E8E72A461C
:1010C0003946304600F07EF9E2E7F8B504460E46B0
:1010D000174684B90020009040F2C513804AAFF251
:1010E0005C21AFF2F02005F039FF00BF9DF8000051
:1010F0000028FBD000BF2546012E09D0022E02D0C9
:10110000032E10D109E0E08A40F02000E08211E0D7
:10111000E08A20F02000E0820CE0286C394602686A
:101120002846904706E0286C3A46314643682846F0
:10113000984700BF00BF0020F8BD2DE9F8430446E2
:10114000884616461F4684B90020009040F2EB13F3
:10115000644AAFF27431AFF2643005F0FFFE00BFB5
:101160009DF800000028FBD000BF25460020287510
:10117000E86128625C4868625C48A8625C48E86292
:101180005C4828635C4868635C48A863EF63B2B25C
:101190004146284603F00EFBBDE8F8832DE9FE43E7
:1011A00005460E46F0B2012806D002287BD003285F
:1011B00078D0042874D17BE04FF0FF37EC6C84B911
:1011C0000020029040F20B234D4AAFF2B831AFF24B
:1011D000DC3005F0C3FE00BF9DF808000028FBD0FE
:1011E00000BF288B10F4807F0FD10020029040F2C6
:1011F0000E23434A43A1AFF2044005F0AFFE00BF07
:101200009DF808000028FBD000BF2AE0286CC168C8
:10121000284688470746781C00D123E000F0B8FC38
:101220008146A28821688F54A088401CA080A18894
:10123000A86CC0F38F20814201DB0020A080A08831
:10124000E18888420AD1E088401CE080E188A86CEF
:10125000C0F38F20814201DB0020E080484600F08F
:101260009BFCD3E700BFE869D0B100F091FC814658
:10127000A088E188884203DBA088E188401A06E064
:10128000E088A188411AA86CC0F38F20401A8046DC
:10129000484600F081FC41462846EA69904700BF75
:1012A00063E000E058E02C6D204600F089F95CE036
:1012B0002C6D002301AA6946201D00F0D9FA01AA6D
:1012C00002A9201D00F0A3FBB0BB01202060286C08
:1012D000022332E047E3000857E3000866E3000812
:1012E00076E3000888E300089F0B0008E30B000882
:1012F000AD0D0008EF0F00085D100008CB100008CE
:101300009EE3000873657269616C2D3E70617265C1
:101310006E742E6F70656E5F666C6167202620525A
:10132000545F4445564943455F464C41475F494EEB
:10133000545F52580000000005E007692846DDE9C7
:101340000121B84701E000202060286A18B12A6A0C
:1013500028460099904708E0EF6C34122146284651
:10136000EA6990470020386000BF00BFBDE8FE83F7
:101370002DE9F84306460F4614467EB9002000903A
:101380002C233E4AAFF2A851AFF2985005F0E6FD8B
:1013900000BF9DF800000028FBD000BFA0460AE077
:1013A000306CC1683046884705463D707F1C641E1E
:1013B0000A2D00D101E0002CF2D100BFA8EB0400FF
:1013C000BDE8F883F8B504460E4615467CB9002002
:1013D00000903E232A4AAFF2F851AFF2E85005F0F0
:1013E000BDFD00BF9DF800000028FBD000BF2F46C8
:1013F00012E030780A2808D1207E10F0400F04D087
:10140000206C0D218268204690473178206C8268DC
:1014100020469047761C6D1E002DEAD1781BF8BD42
:101420002DE9F047044688461646256D4FF0FF33F8
:1014300032464146281D00F07EF90746CFB900F03C
:10144000A7FB8146286801280DD001202860484666
:1014500000F0A2FB206C022332464146D0F810C0B7
:101460002046E04702E0484600F096FB3046BDE8E3
:10147000F087384605F0D2F90020F8E7DCE20008F2
:10148000ECE2000838B504466CB900200090232334
:10149000674A68A16DA005F061FD00BF9DF80000DE
:1014A0000028FBD000BF00F073FB05460020206041
:1014B000201D4060006000BF284600F06DFB38BD75
:1014C0002DE9F34182B005466DB90020019031232A
:1014D000664A58A15DA005F041FD00BF9DF80400DB
:1014E0000028FBD000BF002606F074FF044600F081
:1014F0004FFB07462868012858D0281D00F08FF8B8
:1015000068B9002001903A23584A59A14FA005F02C
:1015100025FD00BF9DF804000028FBD000BF039804
:1015200010B96FF0010644E000202063204607F068
:10153000DAF8281D04F114014268116042684A601B
:101540004160086000BF00BF00F022FB804605F04C
:101550004FF988B1454952A005F000FD00200190E7
:101560004D23424A57A139A005F0F8FC00BF9DF871
:1015700004000028FBD000BF404600F00DFB00BF78
:101580000398002809DD03AA002104F14C0007F0AC
:1015900037FB04F14C0007F057FA384600F0FCFA2C
:1015A00006F0EFFC266B00F0F3FA074600202860F7
:1015B00000BF384600F0F0FA304604B0BDE8F081D4
:1015C000F8B504466CB90020009070233E4A19A17A
:1015D0001EA005F0C3FC00BF9DF800000028FBD052
:1015E00000BF2068012800D1F8BD00F0D1FA0646FE
:1015F00001202060201D00F012F858B96068A0F1A9
:101600001405284606F0E9FE304600F0C5FA06F05B
:10161000B8FC02E0304600F0BFFA00BFE4E7014644
:101620000868884201D1012070470020FCE70000D3
:10163000AFE30008636F6D706C6574696F6E202195
:101640003D2052545F4E554C4C0000002825732914
:1016500020617373657274206661696C65642061D2
:10166000742025733A2564200A000000C2E30008B4
:1016700072745F6C6973745F6973656D70747928D7
:101680002628636F6D706C6574696F6E2D3E73757F
:101690007370656E6465645F6C69737429290000FA
:1016A00046756E6374696F6E5B25735D2073686148
:1016B0006C6C206E6F74207573656420696E2049B0
:1016C00053520A0030000000D5E300084268116060
:1016D00042684A60416008607047F8B504460D46AC
:1016E00016461F466CB9002000902923F94AFAA13A
:1016F000FEA005F033FC00BF9DF800000028FBD0E1
:1017000000BF2762258066800020606020816081A4
:1017100004F1100000F031FA04F1180000F02DFA85
:10172000E80005F023FEE060E06810B96FF0040007
:10173000F8BD0020FCE72DE9FF4F81B00446884644
:1017400091466CB9002000904B23F04AE2A1E7A03B
:1017500005F004FC00BF9DF800000028FBD000BF8E
:10176000002606F037FE05462088401E87B200F0AE
:101770000FFA824646E001206060049810B96FF0CD
:10178000010669E000BF00F003FA834605F030F877
:1017900088B1DE49DEA005F0E1FB002000905F2368
:1017A000DA4AE4A1D1A005F0D9FB00BF9DF8000002
:1017B0000028FBD000BF584600F0EEF900BF002023
:1017C0002863284606F08FFF05F1140104F110008C
:1017D000FFF77CFF0498002809DD04AA002105F129
:1017E0004C0007F00DFA05F14C0007F02DF95046BA
:1017F00000F0D2F906F0C5FB2E6B00F0C9F9824665
:1018000006B129E060892189401A21888842B2D036
:1018100060893840E16841F8308060893840E1688B
:1018200001EBC000C0F804906089401C608104F1A5
:10183000180000F0A5F970B9A069A0F114052846B8
:1018400006F0CBFD504600F0A7F906F09AFB3046B3
:1018500005B0BDE8F08F00BF504600F09DF92EB9ED
:10186000206A18B102212046226A90473046EFE7ED
:101870002DE9FF4F81B004460F4690466CB9002019
:101880000090A923AC4A94A198A005F067FB00BF83
:101890009DF800000028FBD000BF6FB90020009029
:1018A000AA23A54AA5A191A005F058FB00BF9DF869
:1018B00000000028FBD000BFB8F1000F0DD10020C0
:1018C0000090AB239C4AA2A188A005F047FB00BF73
:1018D0009DF800000028FBD000BF002606F07AFD2E
:1018E00005462088401E1FFA80F900F051F9824613
:1018F00044E0049810B96FF001067CE000BF00F0EE
:1019000047F9834604F074FF88B18B4980A005F045
:1019100025FB00200090BC23874A86A173A005F018
:101920001DFB00BF9DF800000028FBD000BF5846FB
:1019300000F032F900BF00202863284606F0D3FEED
:1019400005F1140104F11800FFF7C0FE0498002807
:1019500009DD04AA002105F14C0007F051F905F159
:101960004C0007F071F8504600F016F906F009FB3C
:101970002E6B00F00DF9824606B13CE020896189AA
:101980008842B6D0208900EA0900E16851F83000A9
:101990003860208900EA0900E16801EBC000406876
:1019A000C8F800002089401C20816068012821D1EE
:1019B00060892189401A618888421BDC00206060B0
:1019C00004F1100000F0DCF850B92069A0F1140512
:1019D000284606F002FD504600F0DEF806F0D1FA87
:1019E000206A18B103212046226A9047304605B08C
:1019F000BDE8F08F00BF504600F0CEF82EB9206A47
:101A000018B101212046226A90473046EFE72DE9C0
:101A1000F84304460E46174674B9002000904FF470
:101A200088734F4A2CA131A005F098FA00BF9DF8A9
:101A300000000028FBD000BF2088401E85B200F0C7
:101A4000A7F8804620896189884206D1404600F087
:101A5000A3F86FF00300BDE8F88320892840E1680F
:101A600051F83000306020892840E16801EBC00067
:101A700040683860404600F08FF80020EBE770B512
:101A8000044606F02BFB0EE000F082F80646A06943
:101A9000A0F114054FF0FF302863284606F09DFCA6
:101AA000304600F079F804F1180000F069F80028D9
:101AB000EAD00EE000F06CF806462069A0F11405AB
:101AC0004FF0FF302863284606F087FC304600F0D0
:101AD00063F847E0E8E30008717565756520213D0E
:101AE0002052545F4E554C4C0000000028257329AD
:101AF00020617373657274206661696C656420612E
:101B0000742025733A2564200A000000FBE30008D6
:101B100046756E6374696F6E5B25735D20736861D3
:101B20006C6C206E6F74207573656420696E20493B
:101B300053520A00300000000EE400086461746132
:101B40005F70747220213D2052545F4E554C4C0002
:101B500073697A6520213D2052545F4E554C4C00EC
:101B600020E4000804F1100000F00AF80028A1D0D9
:101B700006F0C2FA06F005FA70BD406000607047DA
:101B800001460868884201D1012070470020FCE727
:101B9000EFF3108072B6704780F310887047314AB7
:101BA0001368012B04D04FF0010313602E4A10601C
:101BB0002E4A11602E484FF0805101607047EFF3BC
:101BC000108272B62748016891B14FF000010160A0
:101BD0002548016829B1EFF3098121E9F00F006878
:101BE0000160224909680968B1E8F00F81F30988AA
:101BF00082F310884EF0040E70471C4908601A49A1
:101C00004FF00000086017494FF0010008601948C4
:101C10004FF47F01D0F8002041EA0201016014482E
:101C20004FF08051016014480068006880F3088814
:101C300062B6704700BF1EF0040F14BFEFF30880B8
:101C4000EFF3098020E9F00F40F804ED80F30888F5
:101C500080F3098800B500F026F95DF804EB4EF03A
:101C6000040E7047280000202000002024000020DF
:101C700004ED00E020ED00E008ED00E0F0B50446E2
:101C80000D461646301D20F0070040380146002260
:101C900003E0C04F41F82270521C102AF9D30D62A4
:101CA0004FF0000CC1F824C0C1F828C0C1F82CC006
:101CB000C1F830C04B638C634FF0807CC1F83CC0EE
:101CC000F0BDB5490860704710B5B4A005F046F9FD
:101CD000B6480188B6A005F041F9B448008810F074
:101CE000010F02D0B8A005F039F9B048008810F013
:101CF000020F02D0B7A005F031F9AC48008810F00F
:101D0000040F02D0B6A005F029F9A848008810F009
:101D1000080F02D0B4A005F021F9A448008810F4FF
:101D2000807F02D0B2A005F019F9A048008810F415
:101D3000007F02D0B1A005F011F99BA005F00EF9CB
:101D400010BD10B5B0A005F009F99848401E017803
:101D5000B0A005F003F99548401E007810F0010F7F
:101D600002D0B2A005F0FAF89048401E007810F0BA
:101D7000020F02D0B0A005F0F1F88C48401E0078A8
:101D800010F0040F02D0AFA005F0E8F88748401E1D
:101D9000007810F0080F02D0AEA005F0DFF88348FD
:101DA000401E007810F0100F02D0ADA005F0D6F85C
:101DB0007E48401E007810F0800F06D07B480E3021
:101DC0000168A9A005F0CAF802E077A005F0C6F8FE
:101DD00010BD10B5A8A005F0C1F87448801E0178A8
:101DE000AAA005F0BBF87148801E007810F0010F22
:101DF00002D0ACA005F0B2F86C48801E007810F05C
:101E0000020F02D0AAA005F0A9F86848801E007849
:101E100010F0080F02D0A9A005F0A0F86348801EBA
:101E2000007810F0100F02D0A7A005F097F85F48D7
:101E3000801E007810F0800F06D05C480A300168E0
:101E4000A4A005F08BF802E057A005F087F810BDBC
:101E500010B55648801C006810F0020F02D0A1A0F7
:101E600005F07CF85148801C006810F0804F10D0BD
:101E70004E48401E007808B1FFF763FF4B48801EB4
:101E8000007808B1FFF7A5FF4848008808B1FFF7C0
:101E90001BFF4648801C006810F0004F02D097A03E
:101EA00005F05CF810BD70B505462C1D3A48006879
:101EB00038B12846384909688847064606B970BDD2
:101EC00000BF92A0E16B05F049F894A0216A05F0EB
:101ED00045F896A0616A05F041F898A0A16A05F05E
:101EE0003DF89AA0E16A05F039F89CA0216805F058
:101EF00035F89EA0616805F031F8A0A0A16805F052
:101F00002DF8A2A0E16805F029F8A4A0216905F048
:101F100025F8A6A0616905F021F8A8A0A16905F03F
:101F20001DF8AAA0E16905F019F8ACA0216B05F035
:101F300015F8AEA0616B05F011F8B0A0A16B05F02B
:101F40000DF8287810F0040F09D006F043FA064681
:101F50003146AEA005F002F806F09AFF02E0B3A009
:101F600004F0FCFFFFF774FF00BFFEE708B5B6A062
:101F700004F0F4FF002000904FF4B073B64AB7A10C
:101F8000B7A004F0EBFF00BF9DF800000028FBD0D5
:101F900008BD0000EFBEADDE1C0000207573616758
:101FA00065206661756C743A0A0000002AED00E055
:101FB0005343425F434653525F554653523A30783B
:101FC0002530325820000000554E444546494E53B6
:101FD00054522000494E56535441544520000000AD
:101FE000494E5650432000004E4F43502000000001
:101FF000554E414C49474E45442000004449564205
:10200000595A45524F200000627573206661756C05
:10201000743A0A005343425F434653525F42465369
:10202000523A30782530325820000000494255534A
:10203000455252200000000050524543495345523A
:1020400052200000494D50524543495345525220B9
:1020500000000000554E53544B45525220000000E2
:1020600053544B45525220005343422D3E42464169
:10207000523A253038580A006D656D206D616E61E9
:102080006765206661756C743A0A00005343425FCD
:10209000434653525F4D4653523A307825303258BA
:1020A000200000004941434356494F4C20000000A6
:1020B0004441434356494F4C200000004D554E5378
:1020C000544B4552522000004D53544B4552522020
:1020D000000000005343422D3E4D4D41523A253001
:1020E00038580A006661696C656420766563746FB0
:1020F000722066657463680A00000000646562759A
:1021000067206576656E740A000000007073723A8D
:10211000203078253038780A000000007230303ADC
:10212000203078253038780A000000007230313ACB
:10213000203078253038780A000000007230323ABA
:10214000203078253038780A000000007230333AA9
:10215000203078253038780A000000007230343A98
:10216000203078253038780A000000007230353A87
:10217000203078253038780A000000007230363A76
:10218000203078253038780A000000007230373A65
:10219000203078253038780A000000007230383A54
:1021A000203078253038780A000000007230393A43
:1021B000203078253038780A000000007231303A3B
:1021C000203078253038780A000000007231313A2A
:1021D000203078253038780A000000007231323A19
:1021E000203078253038780A00000000206C723AE0
:1021F000203078253038780A000000002070633ADB
:10220000203078253038780A000000006861726458
:10221000206661756C74206F6E20746872656164ED
:102220003A2025730D0A0D0A0000000068617264EF
:10223000206661756C74206F6E2068616E646C65D9
:10224000720D0A0D0A00000073687574646F776E72
:102250002E2E2E0A0000000033E40008300000009B
:102260002825732920617373657274206661696C17
:1022700065642061742025733A2564200A000000FB
:1022800010B50446B4F5E06F0BD0B4F5C06F08D0BC
:10229000B4F5A06F05D0B4F5806F02D0B4F5407FDF
:1022A00000D103E063215EA0FEF70AF869482043ED
:1022B0006949086010BD2DE9F0410446002500275A
:1022C0000F26E07810B1E078012800D103E07521F5
:1022D00053A0FDF7F5FF6078102800DA03E07621BF
:1022E0004FA0FDF7EDFFA078102800DA03E077217A
:1022F0004BA0FDF7E5FFE07808B35748006800F40D
:10230000E060C0F5E060050AC5F10407EE406078C2
:1023100000FA07F5A078304005432D014F48227898
:102320008554207800F01F01012088402178491150
:102330004FF0E02202EB8101C1F8000109E02078B2
:1023400000F01F010120884045492278521141F8D0
:102350002200BDE8F08170B504460D46B4F1005F7F
:1023600002D0B4F1006F00D103E09F212CA0FDF753
:10237000A7FF3C48854200D203E0A02128A0FDF73A
:102380009FFF394905EA010020433349091F0860CE
:1023900070BD70B504460D46102C03D0042C01D03E
:1023A000022C00D103E0B2211DA0FDF789FF0DB181
:1023B000012D00D103E0B32119A0FDF781FF3DB14C
:1023C0002548001D006820432349091D086006E0D8
:1023D0002148001D0068A0431F49091D086070BD09
:1023E00010B50446042C01D0601D00D103E0CA21C1
:1023F0000BA0FDF765FF042C08D14FF0E020006929
:1024000040F004004FF0E021086107E04FF0E020C9
:10241000006920F004004FF0E021086110BD0000C9
:102420002E2E5C74686972645F706172745C5354C0
:102430004D3332463130785F537464506572697041
:10244000685F4472697665725C7372635C6D697310
:10245000632E63000000FA050CED00E000E400E0EC
:1024600080E100E0FFFF0F0080FFFF1F10B5044672
:10247000FC48844211D0FC4884420ED0FB48844280
:102480000BD0FB48844208D0FA48844205D0FA4871
:10249000844202D0F948844200D103E06F21F8A0C1
:1024A000FDF70EFFEF48844208D10121042001F01E
:1024B00068F80021042001F064F846E0EA4884420C
:1024C00008D10121082001F05CF80021082001F06A
:1024D00058F83AE0E548844208D10121102001F083
:1024E00050F80021102001F04CF82EE0E048844222
:1024F00008D10121202001F044F80021202001F022
:1025000040F822E0DB48844208D10121402001F05C
:1025100038F80021402001F034F816E0D648844213
:1025200008D10121802001F02CF80021802001F049
:1025300028F80AE0D148844207D10121801501F032
:1025400020F80021A01501F01CF810BD10B50121E4
:10255000084601F016F80021012001F012F810BD24
:102560002DE9F05F05460C464FF00009CA460026EB
:102570000027B046B346BB48854211D0BA488542D1
:102580000ED0BA4885420BD0B948854208D0B94828
:10259000854205D0B848854202D0B848854200D16E
:1025A00003E0B221B6A0FDF78BFEE078A0B1E078A1
:1025B000042811D0E07828280ED0E07848280BD0E5
:1025C000E078142808D0E078102805D0E0781C289E
:1025D00002D0E078182800D103E0B321A8A0FDF7CD
:1025E0006FFE002010B9208800B103E0B421A4A040
:1025F000FDF766FEE07800F00F09E07810F0100FAC
:1026000010D0A078012805D0A078022802D0A078A8
:10261000032800D103E0BB2199A0FDF751FEA0786B
:1026200040EA0909207838B3D5F8008000261FE079
:10263000012000FA06F7208800EA070ABA4516D1F9
:10264000B7000F2000FA07FB28EA0B0809FA07F089
:1026500040EA0808E078282803D10120B0406861EA
:1026600005E0E078482802D10120B0402861761CBE
:10267000082EDDD3C5F800802088FF282BDDD5F893
:102680000480002623E006F10800012101FA00F78A
:10269000208800EA070ABA4518D1B7000F2000FACF
:1026A00007FB28EA0B0809FA07F040EA0808E07877
:1026B000282803D106F1080081406961E0784828A4
:1026C00004D106F10800012181402961761C082E01
:1026D000D9D3C5F80480BDE8F09F4FF6FF710180A3
:1026E000022181700421C170704770B505460C4607
:1026F00000265C48854211D05B4885420ED05B487D
:1027000085420BD05A48854208D05A48854205D0A8
:102710005948854202D05948854200D104E04FF41F
:102720008F7157A0FDF7CCFD012C25D0022C23D0B2
:10273000042C21D0082C1FD0102C1DD0202C1BD0F5
:10274000402C19D0802C17D0B4F5807F14D0B4F56C
:10275000007F11D0B4F5806F0ED0B4F5006F0BD0B0
:10276000B4F5805F08D0B4F5005F05D0B4F5804FB4
:1027700002D0B4F5004F00D104E040F21F1140A098
:10278000FDF79EFDA868204201D0012600E000264A
:10279000304670BD10B504463248844211D03248EC
:1027A00084420ED0314884420BD03148844208D054
:1027B0003048844205D03048844202D02F488442B9
:1027C00000D104E04FF49A712DA0FDF779FDA068C7
:1027D00080B210BD70B505460C46002621488542E2
:1027E00011D0214885420ED0204885420BD0204888
:1027F000854208D01F48854205D01F48854202D037
:102800001E48854200D104E04FF4A2711CA0FDF7E0
:1028100057FD012C25D0022C23D0042C21D0082CCC
:102820001FD0102C1DD0202C1BD0402C19D0802C58
:1028300017D0B4F5807F14D0B4F5007F11D0B4F573
:10284000806F0ED0B4F5006F0BD0B4F5805F08D068
:10285000B4F5005F05D0B4F5804F02D0B4F5004F59
:102860002ED133E000080140000C0140001001406F
:102870000014014000180140001C014000200140EC
:102880002E2E5C74686972645F706172745C53545C
:102890004D3332463130785F5374645065726970DD
:1028A000685F4472697665725C7372635C73746DA1
:1028B0003332663130785F6770696F2E63000000D5
:1028C00040F24511AFF24800FDF7FAFCE8682042FB
:1028D00001D0012600E00026304670BD10B5044648
:1028E000FE48844211D0FE4884420ED0FD48844206
:1028F0000BD0FD48844208D0FC48844205D0FC48F7
:10290000844202D0FB48844200D105E04FF4AD710F
:10291000AFF29400FDF7D4FCE06880B210BD70B552
:1029200004460D46ED48844211D0ED4884420ED055
:10293000EC4884420BD0EC48844208D0EB488442F7
:1029400005D0EB48844202D0EA48844200D105E039
:1029500040F26911AFF2D800FDF7B2FC002008B9CF
:1029600005B105E04FF4B571AFF2EC00FDF7A8FC3E
:10297000256170BD70B504460D46D848844211D01B
:10298000D74884420ED0D74884420BD0D6488442E0
:1029900008D0D648844205D0D548844202D0D548D4
:1029A000844200D105E040F27911AFF22C10FDF71E
:1029B00087FC002008B905B105E04FF4BD71AFF206
:1029C0004010FDF77DFC656170BD70B505460C4695
:1029D0001646C248854211D0C14885420ED0C14832
:1029E00085420BD0C048854208D0C048854205D0FA
:1029F000BF48854202D0BF48854200D105E040F281
:102A00008D11AFF28410FDF75BFC012C25D0022C58
:102A100023D0042C21D0082C1FD0102C1DD0202C0A
:102A20001BD0402C19D0802C17D0B4F5807F14D047
:102A3000B4F5007F11D0B4F5806F0ED0B4F5006FFF
:102A40000BD0B4F5805F08D0B4F5005F05D0B4F5C5
:102A5000804F02D0B4F5004F00D105E04FF4C771AC
:102A6000AFF2E410FDF72CFC0EB1012E00D105E011
:102A700040F28F11AFF2F810FDF722FC0EB12C617D
:102A800000E06C6170BD70B504460D469348844209
:102A900011D0934884420ED0924884420BD0924881
:102AA000844208D09148844205D09148844202D0A3
:102AB0009048844200D105E04FF4D271AFF240203B
:102AC000FDF7FEFBE56070BD70B504460D464FF4A2
:102AD00080368248844211D0814884420ED0814899
:102AE00084420BD08048844208D08048844205D07C
:102AF0007F48844202D07F48844200D105E040F202
:102B0000B511AFF28420FDF7DBFB002008B905B159
:102B100005E04FF4DB71AFF29820FDF7D1FB2E43B7
:102B2000A661A561A661A669A66970BD70B50546D6
:102B30000C4600263DB1012D05D0022D03D0032DFA
:102B400001D0042D00D105E04FF4E971AFF2D0209F
:102B5000FDF7B6FBECB1012C1BD0022C19D0032CD5
:102B600017D0042C15D0052C13D0062C11D0072C0F
:102B70000FD0082C0DD0092C0BD00A2C09D00B2C0F
:102B800007D00C2C05D00D2C03D00E2C01D00F2C0F
:102B900000D105E040F2D311AFF21C30FDF790FBFD
:102BA000554806684FF68070064046EA05162643EB
:102BB0005148066070BD10B504460CB1012C00D11F
:102BC00005E04FF4F371AFF24830FDF779FB4B4865
:102BD000C46110BD2DE9F04704460E460027B846F3
:102BE0000025A946012C77D0022C75D0042C73D077
:102BF000082C71D0A4F5A01010386DD020386BD0FF
:102C0000A4F5B010403867D0803865D03C48844285
:102C100062D03C4884425FD03B4884425CD03B4811
:102C2000844259D03A48844256D0B4F5805F53D09C
:102C3000B4F5EA1F50D0B4F5EB1F4DD0B4F5004FFA
:102C40004AD03448844247D0A4F50010801E7CD07E
:102C5000801E7AD0001F78D0083876D0B4F1201FBB
:102C600073D0303871D02C4884426ED02B488442C7
:102C70006BD02B48844268D02A48844265D02A48C9
:102C8000844262D0B4F5011F5FD0284884425CD0F2
:102C9000401C844259D0801C844256D0001D84427E
:102CA00053D022480F3084424FD020481F308442F6
:102CB0004BD01E483F30844247D01C487F3084426E
:102CC00043D01A48FF3084423FD0194884423CD058
:102CD0001848844239D02FE037E000000008014056
:102CE000000C014000100140001401400018014098
:102CF000001C014000200140000001400000204273
:102D000000011800000218000003180000081A0053
:102D1000000C1A0001002000000130000002300009
:102D2000000430000011200000202000010000807D
:102D300000020080000400806348844205D063489C
:102D4000844202D06248844200D105E040F22A2148
:102D5000AFF2D440FDF7B4FA0EB1012E00D105E078
:102D600040F22B21AFF2E840FDF7AAFA04F0004050
:102D7000B0F1004F02D15748C56901E05548456898
:102D8000C4F30349A7B204F44010B0F5401F08D1C2
:102D900025F070654F48406820F070604D494860EC
:102DA00013E004F48010B0F5801F07D1032000FA6F
:102DB00009F825EA080545F0706506E0600D000198
:102DC00007FA00F0854345F0706526B1600D0101FA
:102DD00007FA01F0054304F00040B0F1004F02D1C2
:102DE0003C48C56101E03B484560BDE8F08770B5EF
:102DF00005460C4600265DB1012D09D0022D07D0F5
:102E0000032D05D0042D03D0052D01D0062D00D1B2
:102E100005E040F26521AFF29850FDF751FAECB1B0
:102E2000012C1BD0022C19D0032C17D0042C15D048
:102E3000052C13D0062C11D0072C0FD0082C0DD048
:102E4000092C0BD00A2C09D00B2C07D00C2C05D048
:102E50000D2C03D00E2C01D00F2C00D105E040F238
:102E60006621AFF2E450FDF72BFAA007010F0F2007
:102E700000FA01F617480830A11050F82100B043BD
:102E800014490831A21041F822000846A11050F858
:102E90002100A107090F05FA01F108430D49083186
:102EA000A21041F8220070BD10B504460CB1012CEF
:102EB00000D105E04FF41E71AFF23C60FDF700FA5F
:102EC0000548046010BD000000080080001000806C
:102ED0000020008000000140DC002042FE48006825
:102EE00040F00100FC49086008464068FB49084082
:102EF000F949486008460068F9490840F649086001
:102F00000846006820F4802008600846406820F4E5
:102F1000FE0048604FF41F008860704710B50446FB
:102F20002CB1B4F5803F02D0B4F5802F00D104E07D
:102F300040F21111EBA0FDF7C3F9E748006820F457
:102F40008030E54908600846006820F48020086069
:102F5000B4F5803F03D0B4F5802F0ED106E0DE48F3
:102F6000006840F48030DC49086007E0DA48006817
:102F700040F4A020D849086000E000BF00BF10BDA9
:102F80002DE9F0410446002500260027212C13D00E
:102F9000312C11D0392C0FD0412C0DD0612C0BD0FD
:102FA0007A2C09D07B2C07D07C2C05D07D2C03D02B
:102FB0007E2C01D07F2C00D104E040F23451C9A016
:102FC000FDF77EF96511012D02D1C348066806E0C0
:102FD000022D02D1C048066A01E0BF48466A04F0EB
:102FE0001F050120A840304201D0012700E0002742
:102FF0003846BDE8F08138B5002000900024002557
:1030000000BF3120FFF7BCFF05460098401C009030
:103010000098B0F5A06F01D0002DF2D03120FFF75D
:10302000AFFF08B1012400E00024204638BD70B590
:10303000044600251F2C00DC04E04FF4A971A9A070
:10304000FDF73EF9A448056825F0F80545EAC405F2
:10305000056070BD10B504460CB1012C00D104E030
:1030600040F265119FA0FDF72BF9AE48046010BD3A
:1030700070B505460C4600262DB1B5F5803F02D04F
:10308000B5F5403F00D104E040F27F1195A0FDF777
:1030900017F94CB3B4F5802F26D0B4F5002F23D008
:1030A000B4F5402F20D0B4F5801F1DD0B4F5A01F7B
:1030B0001AD0B4F5C01F17D0B4F5E01F14D0B4F582
:1030C000001F11D0B4F5101F0ED0B4F5201F0BD087
:1030D000B4F5301F08D0B4F5401F05D0B4F5501F2B
:1030E00002D0B4F5601F00D104E04FF4C0717DA0A0
:1030F000FDF7E6F87848466826F47C1645EA0400B1
:1031000006437548466070BD10B504460CB1012CED
:1031100000D104E04FF4CA7172A0FDF7D1F88148E4
:10312000046610BD70B5044600251CB1012C01D009
:10313000022C00D104E04FF40E716AA0FDF7C0F834
:103140006548456825F003052543456070BD624824
:10315000406800F00C00704770B5044600257CB153
:10316000802C0DD0902C0BD0A02C09D0B02C07D0E7
:10317000C02C05D0D02C03D0E02C01D0F02C00D1F5
:1031800004E04FF4197157A0FDF79AF852484568CA
:1031900025F0F0052543456070BD70B50446002557
:1031A0005CB1B4F5806F08D0B4F5A06F05D0B4F56C
:1031B000C06F02D0B4F5E06F00D104E040F27E2190
:1031C00048A0FDF77DF84448456825F4E0652543AF
:1031D000456070BD70B5044600255CB1B4F5806FE4
:1031E00008D0B4F5A06F05D0B4F5C06F02D0B4F527
:1031F000E06F00D104E04FF426713AA0FDF760F8CB
:103200003548456825F4605545EAC405456070BDFC
:1032100070B504460D4614F0E00F01D104B104E08E
:1032200040F2BF212FA0FDF74BF80DB1012D00D1C9
:1032300004E04FF430712BA0FDF742F82DB1264881
:10324000407A20432449487204E02348407AA0434E
:103250002149487270BD10B504460CB1012C00D153
:1032600004E040F2DB211FA0FDF72AF82E4804609D
:1032700010BD70B50446002544B1B4F5804F05D0AB
:10328000B4F5004F02D0B4F5404F00D104E040F255
:10329000023114A0FDF714F80F48456825F44045A5
:1032A0002543456070BD10B504461CB1012C01D00A
:1032B000042C00D104E04FF450710AA0FDF700F88F
:1032C00000201A490870044981F82000012C2FD0F1
:1032D000042C35D130E00000001002400000FFF85F
:1032E000FFFFF6FE2E2E5C74686972645F70617277
:1032F000745C53544D3332463130785F53746450AC
:1033000065726970685F4472697665725C73726336
:103310005C73746D3332663130785F7263632E6331
:103320000000000000004242D8004242201002404B
:103330000120F449087004E00520F249087000E01B
:1033400000BF00BF10BD10B504460CB1012C00D168
:1033500005E040F26131AFF27400FCF7B1FFEA48DA
:10336000046010BD10B50446B4F5807F05D0B4F5F7
:10337000007F02D0B4F5407F00D105E040F2723109
:10338000AFF2A000FCF79CFFDE482038006A204323
:10339000DC492039086210BD10B504460CB1012C7F
:1033A00000D105E04FF46071AFF2C800FCF788FF70
:1033B000D5484438046010BD30B5002100220024F7
:1033C0000023D04D203D6D6805F00C0121B104298A
:1033D00005D0082926D105E0CC4D056025E0CB4D70
:1033E000056022E0C74D203D6D6805F47012C54DA3
:1033F000203D6D6805F48034022505EB92421CB92E
:10340000C34D554305600CE0BE4D203D6D6815F47D
:10341000003F03D0BE4D5543056002E0BB4D554310
:10342000056002E0B94D056000BF00BFB54D203D0D
:103430006D6805F0F0010909B64D6B5C0568DD406B
:103440004560B04D203D6D6805F4E061090AB14D5D
:103450006B5C4568DD408560AA4D203D6D6805F4D4
:103460006051C90AAB4D6B5C4568DD40C560A54D38
:10347000203D6D6805F44041890BA74D6B5CC56824
:10348000B5FBF3F5056130BD70B504460D4640F25D
:10349000575034EA000001D104B105E040F22B415D
:1034A000AFF2C010FCF70CFF0DB1012D00D105E00B
:1034B00040F22C41AFF2D410FCF702FF3DB191482D
:1034C0002038406920438F492039486106E08D4803
:1034D00020384069A0438B492039486170BD70B5E0
:1034E00004460D468D48044201D104B105E040F286
:1034F0004A41AFF21020FCF7E3FE0DB1012D00D1DF
:1035000005E040F24B41AFF22420FCF7D9FE3DB17B
:103510007C482038806920437A492039886106E058
:10352000784820388069A04376492039886170BD89
:1035300070B504460D467A48044201D104B105E055
:1035400040F26941AFF26420FCF7BAFE0DB1012DE3
:1035500000D105E040F26A41AFF27820FCF7B0FEFE
:103560003DB168482038C069204366492039C861A8
:1035700006E064482038C069A04362492039C86128
:1035800070BD70B504460D466448044201D104B1D3
:1035900005E040F2A441AFF2B420FCF791FE0DB17A
:1035A000012D00D105E040F2A541AFF2C820FCF7A3
:1035B00087FE3DB153482038C06820435149203927
:1035C000C86006E04F482038C068A0434D49203904
:1035D000C86070BD70B504460D465148044201D123
:1035E00004B105E040F2C341AFF20830FCF768FED9
:1035F0000DB1012D00D105E040F2C441AFF21C3005
:10360000FCF75EFE3DB13F482038006920433D494C
:103610002039086106E03B4820380069A043394959
:103620002039086170BD10B504460CB1012C00D1E1
:1036300005E04FF49B61AFF25430FCF741FE324895
:103640004038046010BD10B504460CB1012C00D107
:1036500005E040F2E541AFF27430FCF731FE31484D
:10366000C46410BD10B504463CB1052C05D0042C33
:1036700003D0062C01D0072C00D105E040F2055103
:10368000AFF2A030FCF71CFE1E482038C47110BDFC
:103690001C482038406A40F080701A49203948623E
:1036A000704770B504460025012C09D0022C07D0C4
:1036B000042C05D0082C03D0102C01D0802C00D174
:1036C00005E040F27E51AFF2E430FCF7F9FD0D4821
:1036D00020388068204201D0012500E000252846DE
:1036E00070BD10B5044614F0600F01D104B105E0BF
:1036F00040F2AB51AFF21440FCF7E2FD0148203834
:10370000847210BD201002408004424200127A00F0
:1037100000093D002C0000203C0000200200C0FFFA
:10372000003601810000424210B50446FE48844242
:103730000BD0FE48844208D0FD48844205D0FD48A5
:10374000844202D0FC48844200D103E08521FBA0E2
:10375000FCF7B6FDF448844209D101218803FFF744
:1037600010FF00214FF48040FFF70BFF32E0EF48DD
:10377000844209D101214804FFF72CFF00214FF4B6
:103780000030FFF727FF25E0E948844209D10121F5
:103790008804FFF71FFF00214FF48020FFF71AFF76
:1037A00018E0E448844209D10121C804FFF712FF60
:1037B00000214FF40020FFF70DFF0BE0DE488442AC
:1037C00008D101210805FFF705FF00214FF4801003
:1037D000FFF700FF10BD2DE9F04786B005460C4607
:1037E0000026B24600BFB1460027CF4885420BD025
:1037F000CE48854208D0CE48854205D0CD48854286
:1038000002D0CD48854200D103E0B821CBA0FCF71F
:1038100057FD206820B1D9492068884200D203E0D2
:10382000B921C6A0FCF74CFDA08818B1A088B0F55E
:10383000805F00D103E0BA21C0A0FCF741FDE08821
:1038400058B1E088B0F5805F07D0E088B0F5005F40
:1038500003D0E088B0F5405F00D103E0BB21B7A002
:10386000FCF72EFD208938B12089B0F5806F03D098
:103870002089B0F5C06F00D103E0BC21AFA0FCF7F8
:103880001FFD60894FF6F371084202D1608900B1D3
:1038900003E0BD21A9A0FCF713FDA08958B1A089C0
:1038A000B0F5807F07D0A089B0F5007F03D0A08954
:1038B000B0F5407F00D103E0BE21A0A0FCF700FDE1
:1038C000A08968B19848854205D09848854202D0C1
:1038D0009748854200D103E0C22198A0FCF7F0FC94
:1038E0002F462E8A4CF6FF700640E08806432E8253
:1038F000AE894EF6F3100640A088218908436189FD
:1039000008430643AE81AE8A4FF6FF400640A089C9
:103910000643AE8201A8FFF74FFD8348874202D1DC
:10392000DDF810A001E0DDF80CA0A88910F4004F2C
:1039300008D00AEBCA0000EB0A1021684900B0FB6E
:10394000F1F807E00AEBCA0000EB0A1021688900D1
:10395000B0FBF1F86420B8FBF0F0060130096421F7
:1039600001FB1089A88910F4004F08D0322000EB29
:10397000C900B0FBF1F000F00700064308E0322078
:1039800000EB09106421B0FBF1F000F00F000643DA
:103990002E8106B0BDE8F0874FF41651016000217A
:1039A0008180C18001810C2141810021818170478A
:1039B00070B505460C4600265B48854205D05B483D
:1039C000854202D05A48854200D104E04FF49971F3
:1039D0005AA0FCF775FC208818B12088B0F5006F5C
:1039E00000D104E040F2331154A0FCF769FC608878
:1039F00018B16088B0F5806F00D104E04FF49A717F
:103A00004EA0FCF75DFCA08818B1A088B0F5007F3F
:103A100000D104E040F2351148A0FCF751FCE088E9
:103A200018B1E088B0F5807F00D104E04FF49B71BD
:103A300042A0FCF745FC2E8A4FF2FF00064020888A
:103A400061880843A1880843E188084306432E8221
:103A500070BD0021018041808180C180704770B5B8
:103A600004460D46304884420BD03048844208D08A
:103A70002F48844205D02F48844202D02E488442E9
:103A800000D104E04FF4B1712CA0FCF719FC0DB18A
:103A9000012D00D104E040F2631128A0FCF710FCD6
:103AA00025B1A08940F40050A08104E0A0894DF622
:103AB000FF710840A08170BD2DE9F04705460C4616
:103AC00017464FF00008C246C146002616488542F8
:103AD0000BD01648854208D01548854205D01548B8
:103AE000854202D01448854200D104E040F2891199
:103AF00012A0FCF7E5FB282C45D0A4F5E0602738A0
:103B000041D0A4F5C06026383DD0A4F5A06025388A
:103B100039D0A4F58060243835D0A4F5006046384B
:103B200031D0B0F592702BE00038014000440040E5
:103B300000480040004C0040005000402E2E5C74B5
:103B4000686972645F706172745C53544D333246BD
:103B50003130785F5374645065726970685F447285
:103B6000697665725C7372635C73746D333266314F
:103B700030785F75736172742E63000021AA44006F
:103B800001D0602C00D105E04FF4C571AFF25400B4
:103B9000FCF796FB0FB1012F00D105E040F28B112D
:103BA000AFF26800FCF78CFBA4F510606A380FD107
:103BB000F948854205D0F948854202D0F848854247
:103BC00000D105E040F28F11AFF29000FCF778FBD6
:103BD0002E46C4F3421804F01F0A012000FA0AF925
:103BE000B8F1010F01D10C3605E0B8F1020F01D197
:103BF000103600E0143627B1306840EA0900306022
:103C000003E0306820EA09003060BDE8F08770B555
:103C100004460D461646E04884420BD0DF488442F5
:103C200008D0DF48844205D0DE48844202D0DE4816
:103C3000844200D105E040F2C311AFF20010FCF75E
:103C40003FFB4FF63F70054201D105B105E04FF44F
:103C5000E271AFF21810FCF733FB0EB1012E00D168
:103C600005E040F2C511AFF22C10FCF729FB1EB1A4
:103C7000A08A2843A08202E0A08AA843A08270BD47
:103C800070B504460D46C44884420BD0C3488442F4
:103C900008D0C348844205D0C248844202D0C248FA
:103CA000844200D105E040F2DF11AFF27010FCF762
:103CB00007FB0F2D00DC05E04FF4F071AFF284102C
:103CC000FCF7FEFA208A4FF6F07108402082208A25
:103CD0002843208270BD70B504460D46AE4884422C
:103CE0000BD0AE48844208D0AD48844205D0AD48E0
:103CF000844202D0AC48844200D105E04FF4FB710D
:103D0000AFF2C810FCF7DCFA15B1B5F5006F00D1C1
:103D100005E040F2F711AFF2DC10FCF7D1FAA08910
:103D20004FF2FF710840A081A0892843A08170BD97
:103D300070B504460D46984884420BD0974884429B
:103D400008D09748844205D09648844202D09648CD
:103D5000844200D105E040F20921AFF22020FCF7B7
:103D6000AFFA0DB1012D00D105E040F20A21AFF20A
:103D70003420FCF7A5FA25B1A08940F00200A0810B
:103D800004E0A0894FF6FD710840A08170BD70B5B8
:103D900004460D46804884420BD08048844208D0B7
:103DA0007F48844205D07F48844202D07E488442C6
:103DB00000D105E040F22621AFF28020FCF780FA26
:103DC0000DB1202D00D105E040F22721AFF2942063
:103DD000FCF776FA208A4FF6DF7108402082208AAD
:103DE0002843208270BD70B504460D466A4884425F
:103DF0000BD06A48844208D06948844205D069489B
:103E0000844202D06848844200D105E040F2392162
:103E1000AFF2D820FCF754FA0DB1012D00D105E026
:103E200040F23A21AFF2EC20FCF74AFA25B1208AA1
:103E300040F48040208204E0208A4BF6FF71084065
:103E4000208270BD70B504460D46534884420BD0A5
:103E50005248844208D05248844205D05148844296
:103E600002D05148844200D105E040F25321AFF224
:103E70003430FCF725FAB5F5007F00DA05E04FF4A1
:103E80001571AFF24830FCF71BFAC5F30800A080AB
:103E900070BD10B50446404884420BD03F48844270
:103EA00008D03F48844205D03E48844202D03E4874
:103EB000844200D105E04FF41971AFF28030FCF775
:103EC000FFF9A088C0F3080010BD10B504463248C1
:103ED00084420BD03148844208D03148844205D016
:103EE0003048844202D03048844200D105E04FF48B
:103EF0001D71AFF2B830FCF7E3F9A08940F0010082
:103F0000A08110BD70B504460D462348844205D0FB
:103F10002248844202D02248844200D105E04FF476
:103F20002171AFF2E830FCF7CBF9208BC0B22083CF
:103F3000208B40EA0520208370BD70B504460D46F5
:103F4000154884420BD01548844208D01448844256
:103F500005D01448844202D01348844200D105E0C1
:103F60004FF42671AFF22C40FCF7AAF9208B00F435
:103F70007F402083208B2843208370BD70B504468A
:103F80000D460548844205D00448844202D00448C6
:103F900084420BD110E00000003801400044004092
:103FA00000480040004C00400050004040F2AB216F
:103FB000AFF27840FCF784F90DB1012D00D105E096
:103FC0004FF42B71AFF28C40FCF77AF925B1A08A3F
:103FD00040F02000A08204E0A08A4FF6DF71084084
:103FE000A08270BD70B504460D46F848844205D0E5
:103FF000F748844202D0F748844200D105E04FF4EC
:104000003171AFF2C840FCF75BF90DB1012D00D161
:1040100005E040F2C521AFF2DC40FCF751F925B1D3
:10402000A08A40F01000A08204E0A08A4FF6EF7151
:104030000840A08270BD70B504460D46E348844236
:104040000BD0E348844208D0E248844205D0E248DD
:10405000844202D0E148844200D105E040F2DE21F2
:10406000AFF22850FCF72CF90DB1012D00D105E07D
:1040700040F2DF21AFF23C50FCF722F925B1A08AD3
:1040800040F00800A08204E0A08A4FF6F7710840D3
:10409000A08270BD70B504460D46CC4884420BD05A
:1040A000CB48844208D0CB48844205D0CA488442D9
:1040B00002D0CA48844200D105E040F2FD21AFF2AF
:1040C0008450FCF7FDF80DB1012D00D105E040F260
:1040D000FE21AFF29850FCF7F3F825B1A08940F427
:1040E0000040A08103E0A089C0F30E00A08170BD54
:1040F00070B504460D46B54884420BD0B44884429E
:1041000008D0B448844205D0B348844202D0B348B2
:10411000844200D105E04FF44671AFF2E050FCF765
:10412000CFF80DB1012D00D105E040F21931AFF209
:10413000F450FCF7C5F825B1A08A40F40060A082D5
:1041400004E0A08A4FF2FF710840A08270BD70B5F4
:1041500004460D469D4884420BD09D48844208D0B9
:104160009C48844205D09C48844202D09B488442AB
:1041700000D105E040F23531AFF24060FCF7A0F825
:10418000042D00D005B905E040F23631AFF254609D
:10419000FCF796F8A08A4FF6FB710840A082A08A2F
:1041A0002843A08270BD70B504460D4687488442FE
:1041B0000BD08748844208D08648844205D0864880
:1041C000844202D08548844200D105E04FF4527108
:1041D000AFF29860FCF774F80DB1012D00D105E045
:1041E00040F24931AFF2AC60FCF76AF825B1A08A21
:1041F00040F00200A08204E0A08A4FF6FD71084062
:10420000A08270BD70B505460C4600266F488542F9
:104210000BD06F48854208D06E48854205D06E4865
:10422000854202D06D48854200D105E040F26E31F2
:10423000AFF2F860FCF744F8012C13D0802C11D0B9
:10424000402C0FD0202C0DD0102C0BD0B4F5807F3B
:1042500008D0B4F5007F05D0082C03D0042C01D081
:10426000022C00D105E040F26F31AFF23070FCF764
:1042700027F8B4F5007F0FD15448854205D0544843
:10428000854202D05348854200D105E040F27331A7
:10429000AFF25870FCF714F82888204201D00126AC
:1042A00000E00026304670BD70B504460D46474814
:1042B00084420BD04648844208D04648844205D008
:1042C0004548844202D04548844200D105E040F28E
:1042D0009E31AFF29870FBF7F3FF4FF69F40054217
:1042E00001D105B105E040F29F31AFF2B070FBF7AC
:1042F000E7FF05F40070B0F5007F0FD1334884422A
:1043000005D03348844202D03248844200D105E0CF
:1043100040F2A331AFF2DC70FBF7D2FFE84320801C
:1043200070BD2DE9F04705460C4600270026B04633
:10433000B146264885420BD02548854208D02548FD
:10434000854205D02448854202D02448854200D1C8
:1043500005E040F2C131AFF61C00FBF7B1FF282C9D
:104360001FD0A4F5E06027381BD0A4F5C060263824
:1043700017D0A4F5A060253813D0A4F580602438A8
:104380000FD0A4F5006046380BD0B0F5927008D07D
:10439000B4F5587F05D0B4F5187F02D0B4F5B07FDE
:1043A00000D105E040F2C231AFF67000FBF788FFA4
:1043B000A4F510606A3819D10448854205D0044834
:1043C000854202D0034885420AD10FE000380140FF
:1043D0000044004000480040004C004000500040B5
:1043E00040F2C631AFF6AC00FBF76AFFC4F34218E7
:1043F00004F01F06012000FA06F6B8F1010F02D101
:10440000A889064007E0B8F1020F02D1288A0640C9
:1044100001E0A88A06402712012000FA07F7288841
:1044200007401EB117B14FF0010901E04FF000093C
:104430004846BDE8F0872DE9F04104460D460026C8
:104440000027244884420BD02348844208D02348C4
:10445000844205D02248844202D02248844200D1BE
:1044600005E040F20A41AFF62C10FBF729FFA5F555
:10447000C06026380AD0A5F5A060253806D0A5F57D
:104480000060463802D0B0F5927000D105E040F2ED
:104490000B41AFF65810FBF713FFA5F510606A3813
:1044A0000FD10C48844205D00B48844202D00B48FF
:1044B000844200D105E040F20F41AFF68010FBF7D7
:1044C000FFFE2E120120B04087B2F8432080BDE8E5
:1044D000F0810000003801400044004000480040E6
:1044E000004C0040005000400CB5002001900090AE
:1044F0006B48006840F480306949086000BF684834
:10450000006800F4003000900198401C0190009871
:1045100018B90198B0F5A06FF1D16148006810F4A6
:10452000003F02D00120009001E0002000900098A0
:10453000012842D15B48006840F0100059490860EA
:104540000846006820F0030008600846006840F054
:104550000200086052484068514948600846406877
:1045600048600846406840F48060486008464068FB
:1045700020F47C1048600846406840F4E810486029
:104580000846006840F08070086000BF444800683A
:1045900010F0007FFAD04248406820F00300404904
:1045A00048600846406840F00200486000BF3C4850
:1045B000406800F00C000828F9D10CBD10B5FFF7D9
:1045C00093FF10BD10B53648006840F00100344933
:1045D0000860084640683449084031494860084648
:1045E0000068324908402E4908600846006820F4F7
:1045F000802008600846406820F4FE0048604FF4C0
:104600001F008860FFF7DAFF4FF00060284908605C
:1046100010BD10B5002100200022214B5B6803F083
:104620000C0121B1042906D0082928D107E0214B2B
:10463000214C236027E01F4B1F4C236023E0184BC5
:104640005B6803F47010164B5B6803F4803202233E
:1046500003EB904022B9194B4343174C23600DE004
:104660000F4B5B6813F4003F04D0144B4343124CD0
:10467000236003E00F4B43430F4C236003E00D4BDB
:104680000D4C236000BF00BF054B5B68C3F30313F1
:104690000B4CE15C084B1B68CB40074C236010BD02
:1046A00000100240002002400000FFF8FFFFF6FE6D
:1046B00008ED00E000127A004000002000093D00F3
:1046C000440000200948804709480047FEE7FEE70C
:1046D000FEE7FEE7FEE7FEE7FEE7FEE7FEE7FEE7B2
:1046E00004480549054A064B70470000C5450008C7
:1046F0003101000850150020501B002050170020E9
:1047000050170020704717480068704770B504467E
:10471000FDF73EFA0546134804602846FDF73CFACB
:1047200070BD10B50F480068401C0E49086003F0CA
:1047300051FE0446A06C401EA064A06C18B9606CC9
:10474000A06403F032FF04F08AFA10BD014664222F
:1047500001FB02F000F2E7304FF47A72B0FBF2F0A6
:1047600070470000540000202DE9F041064603F098
:1047700031FE08B103F0B2FCCE4D6C6810E0A4F13C
:104780000C0708223146384602F055F938B903F0D3
:1047900021FE08B103F0B0FC3846BDE8F081246882
:1047A000281D8442EBD103F015FE08B103F0A4FCF0
:1047B0000020F2E770B504460D46164614B94FF0D6
:1047C000FF3070BD2846FFF7CFFF10B14FF0FF302C
:1047D000F7E72A460721204603F0E5F9E6820020A4
:1047E000A07600BFEDE738B504466CB90020009014
:1047F0004623B14AB1A1B5A002F0B0FB00BF9DF8BD
:1048000000000028FBD000BF204603F0F2F9002092
:1048100038BD0020704738B5044600256CB900202B
:1048200000909323B14AA5A1A8A002F097FB00BF76
:104830009DF800000028FBD000BF606A90B1A07D09
:1048400010F0100F0ED12046616A884705462DB141
:104850002A462146A6A002F081FB03E0E08A40F050
:104860001000E082284638BDF8B504460E46002503
:104870006CB900200090B623AB4A90A193A002F03F
:104880006DFB00BF9DF800000028FBD000BFA07D9D
:1048900010F0100F11D1606A58B12046616A884744
:1048A000054635B12A46214691A002F057FB28461D
:1048B000F8BDE08A40F01000E082A07D10F0080F03
:1048C00006D0207E10F0080F02D06FF00600EFE750
:1048D000A06A20B131462046A26A904705460DB134
:1048E000A81D15D146F008002083A07E401CA076AC
:1048F000A07E68B900200090DF238B4A8BA173A0B3
:1049000002F02CFB00BF9DF800000028FBD000BF88
:104910002846CDE738B5044600256CB90020009044
:10492000F123874A65A169A002F018FB00BF9DF83A
:1049300000000028FBD000BFA07E10B94FF0FF3070
:1049400038BDA07E401EA076A07E08B10020F7E70B
:10495000E06A18B12046E16A884705460DB1A81DF6
:1049600001D1002020832846EAE7F8B504460D4629
:1049700016461F4674B9002000904FF48D73714A9B
:104980004EA152A002F0EAFA00BF9DF800000028F4
:10499000FBD000BFA07E28B94FF0FF3001F03EFFF2
:1049A0000020F8BD206B38B13B46324629462046F0
:1049B000D4F830C0E047F4E76FF0050001F02EFFB7
:1049C0000020EEE7F8B504460D4616461F4674B9BA
:1049D000002000904FF4A0735B4A38A13BA002F086
:1049E000BDFA00BF9DF800000028FBD000BFA07EEC
:1049F00028B94FF0FF3001F011FF0020F8BD606BC7
:104A000038B13B46324629462046D4F834C0E04708
:104A1000F4E76FF0050001F001FF0020EEE7F8B5C4
:104A200004460D46164674B9002000904FF4B0734A
:104A3000464A22A125A002F091FA00BF9DF800008D
:104A40000028FBD000BFA06B28B132462946204683
:104A5000A36B9847F8BD0020FCE738B504460D4627
:104A600074B90020009040F27913394A13A117A0BD
:104A700002F074FA00BF9DF800000028FBD000BFD0
:104A8000E561002038BD38B504460D4674B90020F4
:104A900000904FF4C7732F4A08A10CA002F05EFAF1
:104AA00000BF9DF800000028FBD000BF2562002059
:104AB00038BD0000F800002046E400086465762058
:104AC000213D2052545F4E554C4C0000282573293F
:104AD00020617373657274206661696C656420611E
:104AE000742025733A2564200A0000005BE4000866
:104AF000546F20696E697469616C697A65206465B8
:104B0000766963653A2573206661696C65642E2059
:104B1000546865206572726F7220636F64652069E6
:104B2000732025640A0000006AE400086465762D9D
:104B30003E7265665F636F756E7420213D203000A4
:104B400079E4000889E4000898E40008A8E4000873
:104B5000BAE40008D4E400083E4908607047F8B59C
:104B60004DE000BFFDF714F8064601F041FE88B1A4
:104B700039493AA002F0F2F9002000905E23364A4B
:104B80003FA140A002F0EAF900BF9DF80000002814
:104B9000FBD000BF3046FCF7FFFF00BFFCF7F8FF7B
:104BA000054600F04FF8E0B13E480068A0F114045B
:104BB00004F11400D0E900215160D0E90012116025
:104BC0004060006000BFA06F10B12046A16F884711
:104BD000204603F0BAF8012807D12846FCF7DCFF8D
:104BE000F8BD2846FCF7D8FFFAE72846FCF7D4FFC3
:104BF000A06A02F08FFD204603F06BF800BF00F0C2
:104C000021F80028ADD100BFEAE707E011480068AD
:104C100010B1104800688047FFF7A1FFF6E71FB505
:104C200020201F21C200204BCDE90032CDE9021027
:104C300000231E4A1EA1204803F095FB1E4803F0E6
:104C4000FCFB1FBD17490868884201D0012070474E
:104C50000020FCE758000020EEE4000846756E6373
:104C600074696F6E5B25735D207368616C6C206E78
:104C70006F74207573656420696E204953520A0071
:104C80003000000028257329206173736572742039
:104C90006661696C65642061742025733A2564201F
:104CA0000A0000003C010020CC0500200B4C00084D
:104CB0007469646C650000004C0500204268116056
:104CC00042684A604160086070472DE9F04105463E
:104CD0000C469046204603F006FDB8F1000F03D0C5
:104CE000B8F1010F23D105E004F114012846FFF7C4
:104CF000E5FF1CE02E680FE0A6F1140794F83500DC
:104D000097F83510884206DA04F1140107F114000F
:104D1000FFF7D4FF02E03668AE42EDD100BFAE42ED
:104D200004D104F114012846FFF7C8FF00BF00BFFB
:104D30000020BDE8F08170B505460EE0FCF728FFC5
:104D400006462868A0F114044FF0FF302063204687
:104D500003F043FB3046FCF71FFF284601F002FD3D
:104D60000028EBD0002070BDF8B504460D4616466D
:104D70001F466CB900200090D823FA4AFAA1FEA081
:104D800002F0ECF800BF9DF800000028FBD000BF47
:104D90002A460121204602F006FF204601F0EAFCE7
:104DA000A68367720020F8BD38B504466CB90020B0
:104DB0000090F523F84AECA1EFA002F0CFF800BF75
:104DC0009DF800000028FBD000BF04F11400FFF79D
:104DD000B2FF204602F00DFF002038BD2DE9F84358
:104DE00005460E46174600BFFCF7D2FE804601F08E
:104DF000FFFC90B1E949EAA002F0B0F80020009071
:104E000040F21113E54AEFA1DBA002F0A7F800BFC2
:104E10009DF800000028FBD000BF4046FCF7BCFE18
:104E200000BF2946012002F009FF044614B92046BC
:104E3000BDE8F883204601F09DFCA68367722046FA
:104E4000F6E738B5044600BFFCF7A2FE054601F0C0
:104E5000CFFC90B1DC49D2A002F080F80020009095
:104E60004FF49873D84AD7A1C3A002F077F800BFD7
:104E70009DF800000028FBD000BF2846FCF78CFE00
:104E800000BF74B9002000904FF49973CE4AB6A1C8
:104E9000B9A002F063F800BF9DF800000028FBD025
:104EA00000BF04F11400FFF746FF204602F011FF97
:104EB000002038BD2DE9F34182B0054675B90020C8
:104EC000019040F24D13C14AA7A1ABA002F046F8F1
:104ED00000BF9DF804000028FBD000BF00BFBC4805
:104EE000006818B12846BA490968884700BFFCF72E
:104EF0004FFE064600BF00BFA88B002806DDA88B2A
:104F0000401EA8833046FCF747FE6AE0039838B994
:104F10003046FCF741FE6FF0010004B0BDE8F081BF
:104F200000BFFCF735FE074603F054FA90B9A749D5
:104F3000A8A002F013F80020019040F26D13A34ADC
:104F4000A0A18DA002F00AF800BF9DF8040000287F
:104F5000FBD000BF00BFFCF71BFE804601F048FC01
:104F600090B19A498EA001F0F9FF0020019040F223
:104F70006D13964A93A180A001F0F0FF00BF9DF849
:104F800004000028FBD000BF4046FCF705FE00BF30
:104F90003846FCF701FE00BF03F01CFA044600206F
:104FA000206300BF00BF6A7A214605F11400FFF7B5
:104FB0008CFE039800280BDD00BF00BF03AA002170
:104FC00004F14C0003F01CFE04F14C0003F03CFD26
:104FD0003046FCF7E1FD02F0D4FF206B08B1206BF6
:104FE0009BE700BF8948006818B1284687490968CF
:104FF000884700BF002090E710B5044600212046F6
:10500000FFF758FF10BD70B5044600BF8048006828
:1050100018B120467E490968884700BF0025FCF783
:10502000B7FD064600BF00BF04F1140001F09AFB73
:1050300028B904F1140001F0A5FB012502E0A08BC2
:10504000401CA0833046FCF7A7FD012D01D102F0E2
:1050500098FF002070BD2DE9F84304460E46154622
:1050600074B9002000904FF4F2736A4A3EA142A046
:1050700001F074FF00BF9DF800000028FBD000BFC6
:10508000012E10D12F46FCF783FD804604F1140059
:10509000FFF751FEA7834046FCF77EFD02F071FF4B
:1050A0000020BDE8F8834FF0FF30FAE7F8B504467A
:1050B0000D46164674B90020009040F20F23564A60
:1050C00056A12DA001F04AFF00BF9DF80000002866
:1050D000FBD000BF2A460221204602F064FD204694
:1050E00001F048FB0120A08300202062FF20A07770
:1050F0000020E0776672F8BD38B5044674B9002028
:10510000009040F22E234A4A44A11BA001F026FF42
:1051100000BF9DF800000028FBD000BF04F1140080
:10512000FFF709FE204602F064FD002038BDF8B507
:1051300005460E4600BFFCF72BFD074601F058FB65
:1051400070B13C4916A001F009FF0020009040F228
:105150004923384A1BA108A001F000FF00BF6BE003
:105160006FE0000004E5000873656D20213D2052CA
:10517000545F4E554C4C00002825732920617373F1
:10518000657274206661696C6564206174202573A2
:105190003A2564200A00000010E500081EE500081A
:1051A00046756E6374696F6E5B25735D207368610D
:1051B0006C6C206E6F74207573656420696E204975
:1051C00053520A00300000002CE500083AE50008C0
:1051D0002001002046756E6374696F6E5B25735DF8
:1051E000207368616C6C206E6F742062652075732B
:1051F0006564206265666F726520736368656475B7
:105200006C65722073746172740A000024010020BE
:105210002801002046E5000855E500086D75746515
:105220007820213D2052545F4E554C4C0000000028
:1052300063E5000873E500089DF8000000288ED0A3
:1052400000BF3846FCF7A8FC00BF2946022002F048
:10525000F5FC04460CB92046F8BD204601F08AFA58
:105260000120A08300202062FF20A0770020E077AB
:1052700066722046F0E738B5044600BFFCF788FCAC
:10528000054601F0B5FAA8B1FE49AFF2EC0001F015
:1052900065FE0020009040F26A23FA4AAFF2DC017A
:1052A000AFF22C1001F05AFE00BF9DF8000000285C
:1052B000FBD000BF2846FCF76FFC00BF84B900207C
:1052C00000904FF41B73EF4AAFF2B001AFF25810E9
:1052D00001F044FE00BF9DF800000028FBD000BF95
:1052E00004F11400FFF727FD204602F0F2FC002035
:1052F00038BD2DE9F34182B0044600BFFCF748FCFD
:10530000074603F067F8002815D1DF49AFF23C10DB
:1053100001F024FE002001904FF42273DA4AAFF22C
:105320005C11AFF2AC1001F019FE00BF9DF8040053
:105330000028FBD000BF00BFFCF72AFC804601F02C
:1053400057FAA8B1D049AFF2A81001F007FE00202B
:1053500001904FF42273CC4AAFF29811AFF2E810EB
:1053600001F0FCFD00BF9DF804000028FBD000BF49
:105370004046FCF711FC00BF3846FCF70DFC00BFAF
:1053800084B90020019040F28A23BF4AAFF2741121
:10539000AFF21C2001F0E2FD00BF9DF804000028E0
:1053A000FBD000BFFCF7F4FB064603F013F80546FC
:1053B00000BFB648006818B12046B449096888475C
:1053C00000BF00BF00BF00202863206AA84203D1AD
:1053D000E07F401CE0774AE0A08B00280ADDA08B2C
:1053E000401EA083256295F83500A077E07F401C21
:1053F000E0773CE0039850B96FF001002863304635
:10540000FCF7CAFB6FF0010004B0BDE8F08100BFFB
:1054100000BF95F83500216A91F83510884205DA09
:1054200005F135020221206A03F0C5F9627A2946A6
:1054300004F11400FFF749FC039800280BDD00BFBE
:1054400000BF03AA002105F14C0003F0D9FB05F1D0
:105450004C0003F0F9FA3046FCF79EFB02F091FD98
:10546000286B08B1286BCFE7FCF792FB0646304665
:10547000FCF792FB00BF8648006818B120468449BB
:105480000968884700BF0020BEE72DE9F8430446BD
:10549000002600BFFCF77CFB804602F09BFF002843
:1054A00015D17C49AFF2D42001F058FD00200090C6
:1054B00040F20D33774AAFF2F421AFF2443001F0FD
:1054C0004DFD00BF9DF800000028FBD000BF00BFCD
:1054D000FCF75EFB814601F08BF9A8B16D49AFF294
:1054E000403001F03BFD0020009040F20D33694A4E
:1054F000AFF23031AFF2803001F030FD00BF9DF8E7
:1055000000000028FBD000BF4846FCF745FB00BF69
:105510004046FCF741FB00BF02F05CFF0546FCF78C
:1055200037FB074600BF00BF00BF5B48006818B1EB
:10553000204659490968884700BF206AA84209D017
:105540004FF0FF3028633846FCF726FB4FF0FF3062
:10555000BDE8F883E07F401EE077E07F08BBA07FD6
:10556000216A91F83510884205D004F11E0202210B
:10557000206A03F020F904F1140001F0F3F888B96F
:105580006069A0F1140500BF00BF256295F83500E1
:10559000A077E07F401CE07704F1140001F0F2F8FE
:1055A000012606E0A08B401CA08300202062FF2083
:1055B000A0773846FCF7F0FA012E01D102F0E1FCA9
:1055C0000020C5E703464FF0FF307047F8B50446AA
:1055D0000D4616467CB90020009040F27B332F4ADE
:1055E0002FA1AFF26C4001F0B9FC00BF9DF80000A4
:1055F0000028FBD000BF2A460321204602F0D3FA40
:105600006672204601F0B6F80020E061F8BD38B5BA
:1056100004467CB90020009040F29733254A20A12F
:10562000AFF2AC4001F09AFC00BF9DF800000028EA
:10563000FBD000BF04F11400FFF77DFB204602F011
:10564000D8FA002038BDF8B505460E4600BFFCF775
:105650009FFA074601F0CCF880B31749AFF2C0407B
:1056600001F07CFC002000904FF46C73124AAFF202
:10567000AC41AFF2FC4001F071FC00BF9DF80000AE
:1056800000281CE083E5000893E5000820010020C5
:1056900024010020A1E5000828010020B2E500084F
:1056A0006576656E7420213D2052545F4E554C4CFA
:1056B00000000000C0E50008D0E5000801E0DDD0F2
:1056C00000BF3846FCF768FA00BF2946032002F005
:1056D000B5FA04460CB92046F8BD6672204601F0C2
:1056E00049F80020E0612046F6E738B5044684B961
:1056F0000020009040F2CE33FE4AAFF25C01AFF2E0
:10570000885001F02BFC00BF9DF800000028FBD062
:1057100000BF00BFFCF73CFA054601F069F8A8B1EC
:10572000F449AFF2845001F019FC002000904FF4CE
:105730007473F04AAFF27451AFF2C45001F00EFC32
:1057400000BF9DF800000028FBD000BF2846FCF7F2
:1057500023FA00BF04F11400FFF7EDFA204602F02F
:10576000B8FA002038BD2DE9F84F04460F4684B939
:105770000020009040F2EF33DF4AAFF2DC01AFF2DD
:10578000086001F0EBFB00BF9DF800000028FBD093
:1057900000BF1FB94FF0FF30BDE8F88F4FF0000891
:1057A00000BFD648006818B12046D4490968884728
:1057B00000BFFCF7EDF98246E0693843E06104F18F
:1057C000140000F0CFFFC0BB666932E0A6F11405FB
:1057D0004FF0FF3995F8400010F0010F08D0E86B4A
:1057E000E1690840E96B884211D14FF000090EE0F1
:1057F00095F8400010F0020F09D0E86BE16908420B
:1058000005D0E86BE1690840E8634FF000093668AD
:10581000B9F1000F0DD195F8400010F0040F03D03E
:10582000E069E96B8843E061284602F0D6FD4FF05D
:10583000010804F114008642C8D15046FCF7ACF9C7
:10584000B8F1010F01D102F09CFB0020A4E72DE983
:10585000FF4F83B005460E461746DDF8408000BF77
:10586000FCF796F9029002F0B5FD002815D1A44985
:10587000AFF2A06001F072FB0020019040F24F43B4
:105880009F4AAFF2C061AFF2107001F067FB00BF3A
:105890009DF804000028FBD000BF00BFFCF778F99A
:1058A000834600F0A5FFA8B19549AFF20C7001F056
:1058B00055FB0020019040F24F43914AAFF2FC614A
:1058C000AFF24C7001F04AFB00BF9DF804000028C5
:1058D000FBD000BF5846FCF75FF900BF0298FCF709
:1058E0005BF900BF85B90020029040F25243844A20
:1058F000AFF25421AFF2807001F030FB00BF9DF891
:1059000008000028FBD000BF26B94FF0FF3007B0D9
:10591000BDE8F08F4FF0FF3902F05CFD0446002136
:10592000216300BF7748006818B1284675490968A7
:10593000884700BFFCF72CF9824617F0010F06D00C
:10594000E8693040B0421CD14FF0000919E017F06F
:10595000020F05D0E869304213D04FF0000910E083
:10596000002002904FF48E63654AAFF2A871AFF247
:10597000F87001F0F3FA00BF9DF808000028FBD092
:1059800000BFB9F1000F0AD1E8693040C8F8000043
:1059900017F0040F2ED0E869B043E8612AE00698BA
:1059A00018B96FF00100206324E0E66384F84070CA
:1059B0006A7A214605F11400FFF787F90698002856
:1059C00009DD06AA002104F14C0003F019F904F1E5
:1059D0004C0003F039F85046FCF7DEF802F0D1FA3B
:1059E000206B08B1206B92E7FCF7D2F88246E06B9F
:1059F000C8F800005046FCF7CFF800BF42480068E6
:105A000018B1284640490968884700BF206B7EE7E7
:105A1000F8B504460D46174684B90020009040F2C0
:105A2000BE433A4AAFF28831AFF6B40001F096FABD
:105A300000BF9DF800000028FBD000BF012D0FD152
:105A4000FCF7A6F8064604F11400FFF774F90020ED
:105A5000E0613046FCF7A0F802F093FA0020F8BDB0
:105A60004FF0FF30FBE72DE9F84304460D4616469C
:105A70001F46DDF820807CB90020009040F2EB4307
:105A8000234A24A1AFF6101001F068FA00BF9DF878
:105A900000000028FBD000BF2A460421204602F067
:105AA00082F884F80980204600F064FEE6612784CD
:105AB00000206084A084E08404F1280000F04FFE00
:105AC0000020BDE8F88338B504467CB9002000907A
:105AD00040F20E53134A0FA1AFF6641001F03EFAE4
